{
	"Lottery.sol": {
		"Lottery": {
			"abi": [
				{
					"inputs": [
						{
							"internalType": "uint256",
							"name": "initialTicketSupply",
							"type": "uint256"
						}
					],
					"stateMutability": "nonpayable",
					"type": "constructor"
				},
				{
					"anonymous": false,
					"inputs": [
						{
							"indexed": true,
							"internalType": "address",
							"name": "winner",
							"type": "address"
						},
						{
							"indexed": false,
							"internalType": "uint256",
							"name": "blockNumber",
							"type": "uint256"
						}
					],
					"name": "LotteryWon",
					"type": "event"
				},
				{
					"anonymous": false,
					"inputs": [
						{
							"indexed": true,
							"internalType": "address",
							"name": "buyer",
							"type": "address"
						},
						{
							"indexed": false,
							"internalType": "uint256",
							"name": "blockNumber",
							"type": "uint256"
						}
					],
					"name": "TicketPurchased",
					"type": "event"
				},
				{
					"inputs": [],
					"name": "buyTicket",
					"outputs": [],
					"stateMutability": "payable",
					"type": "function"
				},
				{
					"inputs": [],
					"name": "drawWinner",
					"outputs": [
						{
							"internalType": "address",
							"name": "",
							"type": "address"
						}
					],
					"stateMutability": "nonpayable",
					"type": "function"
				},
				{
					"inputs": [],
					"name": "owner",
					"outputs": [
						{
							"internalType": "address",
							"name": "",
							"type": "address"
						}
					],
					"stateMutability": "view",
					"type": "function"
				},
				{
					"inputs": [
						{
							"internalType": "uint256",
							"name": "",
							"type": "uint256"
						}
					],
					"name": "players",
					"outputs": [
						{
							"internalType": "address",
							"name": "",
							"type": "address"
						}
					],
					"stateMutability": "view",
					"type": "function"
				},
				{
					"inputs": [],
					"name": "ticketPrice",
					"outputs": [
						{
							"internalType": "uint256",
							"name": "",
							"type": "uint256"
						}
					],
					"stateMutability": "view",
					"type": "function"
				},
				{
					"inputs": [
						{
							"internalType": "address",
							"name": "",
							"type": "address"
						}
					],
					"name": "tickets",
					"outputs": [
						{
							"internalType": "address payable",
							"name": "holder",
							"type": "address"
						},
						{
							"internalType": "bool",
							"name": "alreadyPurchased",
							"type": "bool"
						}
					],
					"stateMutability": "view",
					"type": "function"
				},
				{
					"inputs": [],
					"name": "totalTicketSupply",
					"outputs": [
						{
							"internalType": "uint256",
							"name": "",
							"type": "uint256"
						}
					],
					"stateMutability": "view",
					"type": "function"
				},
				{
					"inputs": [],
					"name": "unsoldTickets",
					"outputs": [
						{
							"internalType": "uint256",
							"name": "",
							"type": "uint256"
						}
					],
					"stateMutability": "view",
					"type": "function"
				}
			],
			"devdoc": {
				"kind": "dev",
				"methods": {},
				"version": 1
			},
			"evm": {
				"assembly": "    /* \"Lottery.sol\":67:1972  contract Lottery {... */\n  mstore(0x40, 0x80)\n    /* \"Lottery.sol\":401:408  1 ether */\n  0x0de0b6b3a7640000\n    /* \"Lottery.sol\":375:408  uint public ticketPrice = 1 ether */\n  0x06\n  sstore\n    /* \"Lottery.sol\":682:847  constructor(uint initialTicketSupply) {... */\n  callvalue\n  dup1\n  iszero\n  tag_1\n  jumpi\n  0x00\n  dup1\n  revert\ntag_1:\n  pop\n  mload(0x40)\n  sub(codesize, bytecodeSize)\n  dup1\n  bytecodeSize\n  dup4\n  codecopy\n  dup2\n  dup2\n  add\n  0x40\n  mstore\n  dup2\n  add\n  swap1\n  tag_2\n  swap2\n  swap1\n  tag_3\n  jump\t// in\ntag_2:\n    /* \"Lottery.sol\":738:748  msg.sender */\n  caller\n    /* \"Lottery.sol\":730:735  owner */\n  0x00\n  dup1\n    /* \"Lottery.sol\":730:748  owner = msg.sender */\n  0x0100\n  exp\n  dup2\n  sload\n  dup2\n  0xffffffffffffffffffffffffffffffffffffffff\n  mul\n  not\n  and\n  swap1\n  dup4\n  0xffffffffffffffffffffffffffffffffffffffff\n  and\n  mul\n  or\n  swap1\n  sstore\n  pop\n    /* \"Lottery.sol\":778:797  initialTicketSupply */\n  dup1\n    /* \"Lottery.sol\":758:775  totalTicketSupply */\n  0x04\n    /* \"Lottery.sol\":758:797  totalTicketSupply = initialTicketSupply */\n  dup2\n  swap1\n  sstore\n  pop\n    /* \"Lottery.sol\":823:840  totalTicketSupply */\n  sload(0x04)\n    /* \"Lottery.sol\":807:820  unsoldTickets */\n  0x05\n    /* \"Lottery.sol\":807:840  unsoldTickets = totalTicketSupply */\n  dup2\n  swap1\n  sstore\n  pop\n    /* \"Lottery.sol\":682:847  constructor(uint initialTicketSupply) {... */\n  pop\n    /* \"Lottery.sol\":67:1972  contract Lottery {... */\n  jump(tag_6)\n    /* \"#utility.yul\":88:205   */\ntag_8:\n    /* \"#utility.yul\":197:198   */\n  0x00\n    /* \"#utility.yul\":194:195   */\n  dup1\n    /* \"#utility.yul\":187:199   */\n  revert\n    /* \"#utility.yul\":334:411   */\ntag_10:\n    /* \"#utility.yul\":371:378   */\n  0x00\n    /* \"#utility.yul\":400:405   */\n  dup2\n    /* \"#utility.yul\":389:405   */\n  swap1\n  pop\n    /* \"#utility.yul\":334:411   */\n  swap2\n  swap1\n  pop\n  jump\t// out\n    /* \"#utility.yul\":417:539   */\ntag_11:\n    /* \"#utility.yul\":490:514   */\n  tag_19\n    /* \"#utility.yul\":508:513   */\n  dup2\n    /* \"#utility.yul\":490:514   */\n  tag_10\n  jump\t// in\ntag_19:\n    /* \"#utility.yul\":483:488   */\n  dup2\n    /* \"#utility.yul\":480:515   */\n  eq\n    /* \"#utility.yul\":470:533   */\n  tag_20\n  jumpi\n    /* \"#utility.yul\":529:530   */\n  0x00\n    /* \"#utility.yul\":526:527   */\n  dup1\n    /* \"#utility.yul\":519:531   */\n  revert\n    /* \"#utility.yul\":470:533   */\ntag_20:\n    /* \"#utility.yul\":417:539   */\n  pop\n  jump\t// out\n    /* \"#utility.yul\":545:688   */\ntag_12:\n    /* \"#utility.yul\":602:607   */\n  0x00\n    /* \"#utility.yul\":633:639   */\n  dup2\n    /* \"#utility.yul\":627:640   */\n  mload\n    /* \"#utility.yul\":618:640   */\n  swap1\n  pop\n    /* \"#utility.yul\":649:682   */\n  tag_22\n    /* \"#utility.yul\":676:681   */\n  dup2\n    /* \"#utility.yul\":649:682   */\n  tag_11\n  jump\t// in\ntag_22:\n    /* \"#utility.yul\":545:688   */\n  swap3\n  swap2\n  pop\n  pop\n  jump\t// out\n    /* \"#utility.yul\":694:1045   */\ntag_3:\n    /* \"#utility.yul\":764:770   */\n  0x00\n    /* \"#utility.yul\":813:815   */\n  0x20\n    /* \"#utility.yul\":801:810   */\n  dup3\n    /* \"#utility.yul\":792:799   */\n  dup5\n    /* \"#utility.yul\":788:811   */\n  sub\n    /* \"#utility.yul\":784:816   */\n  slt\n    /* \"#utility.yul\":781:900   */\n  iszero\n  tag_24\n  jumpi\n    /* \"#utility.yul\":819:898   */\n  tag_25\n  tag_8\n  jump\t// in\ntag_25:\n    /* \"#utility.yul\":781:900   */\ntag_24:\n    /* \"#utility.yul\":939:940   */\n  0x00\n    /* \"#utility.yul\":964:1028   */\n  tag_26\n    /* \"#utility.yul\":1020:1027   */\n  dup5\n    /* \"#utility.yul\":1011:1017   */\n  dup3\n    /* \"#utility.yul\":1000:1009   */\n  dup6\n    /* \"#utility.yul\":996:1018   */\n  add\n    /* \"#utility.yul\":964:1028   */\n  tag_12\n  jump\t// in\ntag_26:\n    /* \"#utility.yul\":954:1028   */\n  swap2\n  pop\n    /* \"#utility.yul\":910:1038   */\n  pop\n    /* \"#utility.yul\":694:1045   */\n  swap3\n  swap2\n  pop\n  pop\n  jump\t// out\n    /* \"Lottery.sol\":67:1972  contract Lottery {... */\ntag_6:\n  dataSize(sub_0)\n  dup1\n  dataOffset(sub_0)\n  0x00\n  codecopy\n  0x00\n  return\nstop\n\nsub_0: assembly {\n        /* \"Lottery.sol\":67:1972  contract Lottery {... */\n      mstore(0x40, 0x80)\n      jumpi(tag_1, lt(calldatasize, 0x04))\n      shr(0xe0, calldataload(0x00))\n      dup1\n      0x8da5cb5b\n      gt\n      tag_10\n      jumpi\n      dup1\n      0x8da5cb5b\n      eq\n      tag_6\n      jumpi\n      dup1\n      0xb2185bb1\n      eq\n      tag_7\n      jumpi\n      dup1\n      0xedca914c\n      eq\n      tag_8\n      jumpi\n      dup1\n      0xf71d96cb\n      eq\n      tag_9\n      jumpi\n      jump(tag_1)\n    tag_10:\n      dup1\n      0x1209b1f6\n      eq\n      tag_2\n      jumpi\n      dup1\n      0x2240dbdb\n      eq\n      tag_3\n      jumpi\n      dup1\n      0x333c1992\n      eq\n      tag_4\n      jumpi\n      dup1\n      0x6dcbf2a3\n      eq\n      tag_5\n      jumpi\n    tag_1:\n      0x00\n      dup1\n      revert\n        /* \"Lottery.sol\":375:408  uint public ticketPrice = 1 ether */\n    tag_2:\n      callvalue\n      dup1\n      iszero\n      tag_11\n      jumpi\n      0x00\n      dup1\n      revert\n    tag_11:\n      pop\n      tag_12\n      tag_13\n      jump\t// in\n    tag_12:\n      mload(0x40)\n      tag_14\n      swap2\n      swap1\n      tag_15\n      jump\t// in\n    tag_14:\n      mload(0x40)\n      dup1\n      swap2\n      sub\n      swap1\n      return\n        /* \"Lottery.sol\":309:338  uint public totalTicketSupply */\n    tag_3:\n      callvalue\n      dup1\n      iszero\n      tag_16\n      jumpi\n      0x00\n      dup1\n      revert\n    tag_16:\n      pop\n      tag_17\n      tag_18\n      jump\t// in\n    tag_17:\n      mload(0x40)\n      tag_19\n      swap2\n      swap1\n      tag_15\n      jump\t// in\n    tag_19:\n      mload(0x40)\n      dup1\n      swap2\n      sub\n      swap1\n      return\n        /* \"Lottery.sol\":344:369  uint public unsoldTickets */\n    tag_4:\n      callvalue\n      dup1\n      iszero\n      tag_20\n      jumpi\n      0x00\n      dup1\n      revert\n    tag_20:\n      pop\n      tag_21\n      tag_22\n      jump\t// in\n    tag_21:\n      mload(0x40)\n      tag_23\n      swap2\n      swap1\n      tag_15\n      jump\t// in\n    tag_23:\n      mload(0x40)\n      dup1\n      swap2\n      sub\n      swap1\n      return\n        /* \"Lottery.sol\":236:278  mapping (address => Ticket) public tickets */\n    tag_5:\n      callvalue\n      dup1\n      iszero\n      tag_24\n      jumpi\n      0x00\n      dup1\n      revert\n    tag_24:\n      pop\n      tag_25\n      0x04\n      dup1\n      calldatasize\n      sub\n      dup2\n      add\n      swap1\n      tag_26\n      swap2\n      swap1\n      tag_27\n      jump\t// in\n    tag_26:\n      tag_28\n      jump\t// in\n    tag_25:\n      mload(0x40)\n      tag_29\n      swap3\n      swap2\n      swap1\n      tag_30\n      jump\t// in\n    tag_29:\n      mload(0x40)\n      dup1\n      swap2\n      sub\n      swap1\n      return\n        /* \"Lottery.sol\":180:200  address public owner */\n    tag_6:\n      callvalue\n      dup1\n      iszero\n      tag_31\n      jumpi\n      0x00\n      dup1\n      revert\n    tag_31:\n      pop\n      tag_32\n      tag_33\n      jump\t// in\n    tag_32:\n      mload(0x40)\n      tag_34\n      swap2\n      swap1\n      tag_35\n      jump\t// in\n    tag_34:\n      mload(0x40)\n      dup1\n      swap2\n      sub\n      swap1\n      return\n        /* \"Lottery.sol\":1473:1970  function drawWinner() public onlyOwner returns (address) {... */\n    tag_7:\n      callvalue\n      dup1\n      iszero\n      tag_36\n      jumpi\n      0x00\n      dup1\n      revert\n    tag_36:\n      pop\n      tag_37\n      tag_38\n      jump\t// in\n    tag_37:\n      mload(0x40)\n      tag_39\n      swap2\n      swap1\n      tag_35\n      jump\t// in\n    tag_39:\n      mload(0x40)\n      dup1\n      swap2\n      sub\n      swap1\n      return\n        /* \"Lottery.sol\":853:1467  function buyTicket() public payable {... */\n    tag_8:\n      tag_40\n      tag_41\n      jump\t// in\n    tag_40:\n      stop\n        /* \"Lottery.sol\":206:230  address[] public players */\n    tag_9:\n      callvalue\n      dup1\n      iszero\n      tag_42\n      jumpi\n      0x00\n      dup1\n      revert\n    tag_42:\n      pop\n      tag_43\n      0x04\n      dup1\n      calldatasize\n      sub\n      dup2\n      add\n      swap1\n      tag_44\n      swap2\n      swap1\n      tag_45\n      jump\t// in\n    tag_44:\n      tag_46\n      jump\t// in\n    tag_43:\n      mload(0x40)\n      tag_47\n      swap2\n      swap1\n      tag_35\n      jump\t// in\n    tag_47:\n      mload(0x40)\n      dup1\n      swap2\n      sub\n      swap1\n      return\n        /* \"Lottery.sol\":375:408  uint public ticketPrice = 1 ether */\n    tag_13:\n      sload(0x06)\n      dup2\n      jump\t// out\n        /* \"Lottery.sol\":309:338  uint public totalTicketSupply */\n    tag_18:\n      sload(0x04)\n      dup2\n      jump\t// out\n        /* \"Lottery.sol\":344:369  uint public unsoldTickets */\n    tag_22:\n      sload(0x05)\n      dup2\n      jump\t// out\n        /* \"Lottery.sol\":236:278  mapping (address => Ticket) public tickets */\n    tag_28:\n      mstore(0x20, 0x02)\n      dup1\n      0x00\n      mstore\n      keccak256(0x00, 0x40)\n      0x00\n      swap2\n      pop\n      swap1\n      pop\n      dup1\n      0x00\n      add\n      0x00\n      swap1\n      sload\n      swap1\n      0x0100\n      exp\n      swap1\n      div\n      0xffffffffffffffffffffffffffffffffffffffff\n      and\n      swap1\n      dup1\n      0x00\n      add\n      0x14\n      swap1\n      sload\n      swap1\n      0x0100\n      exp\n      swap1\n      div\n      0xff\n      and\n      swap1\n      pop\n      dup3\n      jump\t// out\n        /* \"Lottery.sol\":180:200  address public owner */\n    tag_33:\n      0x00\n      dup1\n      sload\n      swap1\n      0x0100\n      exp\n      swap1\n      div\n      0xffffffffffffffffffffffffffffffffffffffff\n      and\n      dup2\n      jump\t// out\n        /* \"Lottery.sol\":1473:1970  function drawWinner() public onlyOwner returns (address) {... */\n    tag_38:\n        /* \"Lottery.sol\":1521:1528  address */\n      0x00\n        /* \"Lottery.sol\":601:606  owner */\n      dup1\n      0x00\n      swap1\n      sload\n      swap1\n      0x0100\n      exp\n      swap1\n      div\n      0xffffffffffffffffffffffffffffffffffffffff\n      and\n        /* \"Lottery.sol\":587:606  msg.sender == owner */\n      0xffffffffffffffffffffffffffffffffffffffff\n      and\n        /* \"Lottery.sol\":587:597  msg.sender */\n      caller\n        /* \"Lottery.sol\":587:606  msg.sender == owner */\n      0xffffffffffffffffffffffffffffffffffffffff\n      and\n      eq\n        /* \"Lottery.sol\":579:658  require(msg.sender == owner, \"Only the contract owner can call this function.\") */\n      tag_49\n      jumpi\n      mload(0x40)\n      0x08c379a000000000000000000000000000000000000000000000000000000000\n      dup2\n      mstore\n      0x04\n      add\n      tag_50\n      swap1\n      tag_51\n      jump\t// in\n    tag_50:\n      mload(0x40)\n      dup1\n      swap2\n      sub\n      swap1\n      revert\n    tag_49:\n        /* \"Lottery.sol\":1583:1584  2 */\n      0x02\n        /* \"Lottery.sol\":1565:1582  totalTicketSupply */\n      sload(0x04)\n        /* \"Lottery.sol\":1565:1584  totalTicketSupply/2 */\n      tag_53\n      swap2\n      swap1\n      tag_54\n      jump\t// in\n    tag_53:\n        /* \"Lottery.sol\":1548:1561  unsoldTickets */\n      sload(0x05)\n        /* \"Lottery.sol\":1548:1585  unsoldTickets < (totalTicketSupply/2) */\n      lt\n        /* \"Lottery.sol\":1540:1624  require(unsoldTickets < (totalTicketSupply/2), \"Not enough tickets have been sold.\") */\n      tag_55\n      jumpi\n      mload(0x40)\n      0x08c379a000000000000000000000000000000000000000000000000000000000\n      dup2\n      mstore\n      0x04\n      add\n      tag_56\n      swap1\n      tag_57\n      jump\t// in\n    tag_56:\n      mload(0x40)\n      dup1\n      swap2\n      sub\n      swap1\n      revert\n    tag_55:\n        /* \"Lottery.sol\":1634:1652  uint winningTicket */\n      0x00\n        /* \"Lottery.sol\":1748:1761  unsoldTickets */\n      sload(0x05)\n        /* \"Lottery.sol\":1728:1745  totalTicketSupply */\n      sload(0x04)\n        /* \"Lottery.sol\":1728:1761  totalTicketSupply - unsoldTickets */\n      tag_58\n      swap2\n      swap1\n      tag_59\n      jump\t// in\n    tag_58:\n        /* \"Lottery.sol\":1687:1702  block.timestamp */\n      timestamp\n        /* \"Lottery.sol\":1704:1714  msg.sender */\n      caller\n        /* \"Lottery.sol\":1716:1721  nonce */\n      sload(0x03)\n        /* \"Lottery.sol\":1670:1722  abi.encodePacked(block.timestamp, msg.sender, nonce) */\n      add(0x20, mload(0x40))\n      tag_60\n      swap4\n      swap3\n      swap2\n      swap1\n      tag_61\n      jump\t// in\n    tag_60:\n      mload(0x40)\n      0x20\n      dup2\n      dup4\n      sub\n      sub\n      dup2\n      mstore\n      swap1\n      0x40\n      mstore\n        /* \"Lottery.sol\":1660:1723  keccak256(abi.encodePacked(block.timestamp, msg.sender, nonce)) */\n      dup1\n      mload\n      swap1\n      0x20\n      add\n      keccak256\n        /* \"Lottery.sol\":1655:1724  uint(keccak256(abi.encodePacked(block.timestamp, msg.sender, nonce))) */\n      0x00\n      shr\n        /* \"Lottery.sol\":1655:1762  uint(keccak256(abi.encodePacked(block.timestamp, msg.sender, nonce))) % (totalTicketSupply - unsoldTickets) */\n      tag_62\n      swap2\n      swap1\n      tag_63\n      jump\t// in\n    tag_62:\n        /* \"Lottery.sol\":1634:1762  uint winningTicket = uint(keccak256(abi.encodePacked(block.timestamp, msg.sender, nonce))) % (totalTicketSupply - unsoldTickets) */\n      swap1\n      pop\n        /* \"Lottery.sol\":1772:1777  nonce */\n      0x03\n      0x00\n        /* \"Lottery.sol\":1772:1779  nonce++ */\n      dup2\n      sload\n      dup1\n      swap3\n      swap2\n      swap1\n      tag_64\n      swap1\n      tag_65\n      jump\t// in\n    tag_64:\n      swap2\n      swap1\n      pop\n      sstore\n      pop\n        /* \"Lottery.sol\":1789:1811  address payable winner */\n      0x00\n        /* \"Lottery.sol\":1822:1829  players */\n      0x01\n        /* \"Lottery.sol\":1830:1843  winningTicket */\n      dup3\n        /* \"Lottery.sol\":1822:1844  players[winningTicket] */\n      dup2\n      sload\n      dup2\n      lt\n      tag_66\n      jumpi\n      tag_67\n      tag_68\n      jump\t// in\n    tag_67:\n    tag_66:\n      swap1\n      0x00\n      mstore\n      keccak256(0x00, 0x20)\n      add\n      0x00\n      swap1\n      sload\n      swap1\n      0x0100\n      exp\n      swap1\n      div\n      0xffffffffffffffffffffffffffffffffffffffff\n      and\n        /* \"Lottery.sol\":1789:1845  address payable winner = payable(players[winningTicket]) */\n      swap1\n      pop\n        /* \"Lottery.sol\":1855:1861  winner */\n      dup1\n        /* \"Lottery.sol\":1855:1870  winner.transfer */\n      0xffffffffffffffffffffffffffffffffffffffff\n      and\n        /* \"Lottery.sol\":1855:1893  winner.transfer(address(this).balance) */\n      0x08fc\n        /* \"Lottery.sol\":1871:1892  address(this).balance */\n      selfbalance\n        /* \"Lottery.sol\":1855:1893  winner.transfer(address(this).balance) */\n      swap1\n      dup2\n      iszero\n      mul\n      swap1\n      mload(0x40)\n      0x00\n      mload(0x40)\n      dup1\n      dup4\n      sub\n      dup2\n      dup6\n      dup9\n      dup9\n      call\n      swap4\n      pop\n      pop\n      pop\n      pop\n      iszero\n      dup1\n      iszero\n      tag_71\n      jumpi\n      returndatasize\n      0x00\n      dup1\n      returndatacopy\n      revert(0x00, returndatasize)\n    tag_71:\n      pop\n        /* \"Lottery.sol\":1919:1925  winner */\n      dup1\n        /* \"Lottery.sol\":1908:1940  LotteryWon(winner, block.number) */\n      0xffffffffffffffffffffffffffffffffffffffff\n      and\n      0x2e798dd4337e515c79b64c40e1a93baa1aefbd9180ac7905e02508edd7971e50\n        /* \"Lottery.sol\":1927:1939  block.number */\n      number\n        /* \"Lottery.sol\":1908:1940  LotteryWon(winner, block.number) */\n      mload(0x40)\n      tag_72\n      swap2\n      swap1\n      tag_15\n      jump\t// in\n    tag_72:\n      mload(0x40)\n      dup1\n      swap2\n      sub\n      swap1\n      log2\n        /* \"Lottery.sol\":1957:1963  winner */\n      dup1\n        /* \"Lottery.sol\":1950:1963  return winner */\n      swap3\n      pop\n      pop\n      pop\n        /* \"Lottery.sol\":1473:1970  function drawWinner() public onlyOwner returns (address) {... */\n      swap1\n      jump\t// out\n        /* \"Lottery.sol\":853:1467  function buyTicket() public payable {... */\n    tag_41:\n        /* \"Lottery.sol\":923:924  0 */\n      0x00\n        /* \"Lottery.sol\":907:920  unsoldTickets */\n      sload(0x05)\n        /* \"Lottery.sol\":907:924  unsoldTickets > 0 */\n      gt\n        /* \"Lottery.sol\":899:950  require(unsoldTickets > 0, \"Tickets are sold out.\") */\n      tag_74\n      jumpi\n      mload(0x40)\n      0x08c379a000000000000000000000000000000000000000000000000000000000\n      dup2\n      mstore\n      0x04\n      add\n      tag_75\n      swap1\n      tag_76\n      jump\t// in\n    tag_75:\n      mload(0x40)\n      dup1\n      swap2\n      sub\n      swap1\n      revert\n    tag_74:\n        /* \"Lottery.sol\":1008:1013  false */\n      0x00\n        /* \"Lottery.sol\":968:1013  tickets[msg.sender].alreadyPurchased == false */\n      iszero\n      iszero\n        /* \"Lottery.sol\":968:975  tickets */\n      0x02\n        /* \"Lottery.sol\":968:987  tickets[msg.sender] */\n      0x00\n        /* \"Lottery.sol\":976:986  msg.sender */\n      caller\n        /* \"Lottery.sol\":968:987  tickets[msg.sender] */\n      0xffffffffffffffffffffffffffffffffffffffff\n      and\n      0xffffffffffffffffffffffffffffffffffffffff\n      and\n      dup2\n      mstore\n      0x20\n      add\n      swap1\n      dup2\n      mstore\n      0x20\n      add\n      0x00\n      keccak256\n        /* \"Lottery.sol\":968:1004  tickets[msg.sender].alreadyPurchased */\n      0x00\n      add\n      0x14\n      swap1\n      sload\n      swap1\n      0x0100\n      exp\n      swap1\n      div\n      0xff\n      and\n        /* \"Lottery.sol\":968:1013  tickets[msg.sender].alreadyPurchased == false */\n      iszero\n      iszero\n      eq\n        /* \"Lottery.sol\":960:1063  require(tickets[msg.sender].alreadyPurchased == false, \"Only one ticket per address can be purchased.\") */\n      tag_77\n      jumpi\n      mload(0x40)\n      0x08c379a000000000000000000000000000000000000000000000000000000000\n      dup2\n      mstore\n      0x04\n      add\n      tag_78\n      swap1\n      tag_79\n      jump\t// in\n    tag_78:\n      mload(0x40)\n      dup1\n      swap2\n      sub\n      swap1\n      revert\n    tag_77:\n        /* \"Lottery.sol\":1094:1105  ticketPrice */\n      sload(0x06)\n        /* \"Lottery.sol\":1081:1090  msg.value */\n      callvalue\n        /* \"Lottery.sol\":1081:1105  msg.value == ticketPrice */\n      eq\n        /* \"Lottery.sol\":1073:1155  require(msg.value == ticketPrice, \"Either not enough or too much Ether was sent.\") */\n      tag_80\n      jumpi\n      mload(0x40)\n      0x08c379a000000000000000000000000000000000000000000000000000000000\n      dup2\n      mstore\n      0x04\n      add\n      tag_81\n      swap1\n      tag_82\n      jump\t// in\n    tag_81:\n      mload(0x40)\n      dup1\n      swap2\n      sub\n      swap1\n      revert\n    tag_80:\n        /* \"Lottery.sol\":1174:1197  Ticket memory newTicket */\n      tag_83\n      tag_84\n      jump\t// in\n    tag_83:\n        /* \"Lottery.sol\":1234:1244  msg.sender */\n      caller\n        /* \"Lottery.sol\":1207:1216  newTicket */\n      dup2\n        /* \"Lottery.sol\":1207:1223  newTicket.holder */\n      0x00\n      add\n        /* \"Lottery.sol\":1207:1245  newTicket.holder = payable(msg.sender) */\n      swap1\n      0xffffffffffffffffffffffffffffffffffffffff\n      and\n      swap1\n      dup2\n      0xffffffffffffffffffffffffffffffffffffffff\n      and\n      dup2\n      mstore\n      pop\n      pop\n        /* \"Lottery.sol\":1284:1288  true */\n      0x01\n        /* \"Lottery.sol\":1255:1264  newTicket */\n      dup2\n        /* \"Lottery.sol\":1255:1281  newTicket.alreadyPurchased */\n      0x20\n      add\n        /* \"Lottery.sol\":1255:1288  newTicket.alreadyPurchased = true */\n      swap1\n      iszero\n      iszero\n      swap1\n      dup2\n      iszero\n      iszero\n      dup2\n      mstore\n      pop\n      pop\n        /* \"Lottery.sol\":1329:1338  newTicket */\n      dup1\n        /* \"Lottery.sol\":1307:1314  tickets */\n      0x02\n        /* \"Lottery.sol\":1307:1326  tickets[msg.sender] */\n      0x00\n        /* \"Lottery.sol\":1315:1325  msg.sender */\n      caller\n        /* \"Lottery.sol\":1307:1326  tickets[msg.sender] */\n      0xffffffffffffffffffffffffffffffffffffffff\n      and\n      0xffffffffffffffffffffffffffffffffffffffff\n      and\n      dup2\n      mstore\n      0x20\n      add\n      swap1\n      dup2\n      mstore\n      0x20\n      add\n      0x00\n      keccak256\n        /* \"Lottery.sol\":1307:1338  tickets[msg.sender] = newTicket */\n      0x00\n      dup3\n      add\n      mload\n      dup2\n      0x00\n      add\n      exp(0x0100, 0x00)\n      dup2\n      sload\n      dup2\n      0xffffffffffffffffffffffffffffffffffffffff\n      mul\n      not\n      and\n      swap1\n      dup4\n      0xffffffffffffffffffffffffffffffffffffffff\n      and\n      mul\n      or\n      swap1\n      sstore\n      pop\n      0x20\n      dup3\n      add\n      mload\n      dup2\n      0x00\n      add\n      exp(0x0100, 0x14)\n      dup2\n      sload\n      dup2\n      0xff\n      mul\n      not\n      and\n      swap1\n      dup4\n      iszero\n      iszero\n      mul\n      or\n      swap1\n      sstore\n      pop\n      swap1\n      pop\n      pop\n        /* \"Lottery.sol\":1348:1355  players */\n      0x01\n        /* \"Lottery.sol\":1361:1370  newTicket */\n      dup2\n        /* \"Lottery.sol\":1361:1377  newTicket.holder */\n      0x00\n      add\n      mload\n        /* \"Lottery.sol\":1348:1378  players.push(newTicket.holder) */\n      swap1\n      dup1\n      0x01\n      dup2\n      sload\n      add\n      dup1\n      dup3\n      sstore\n      dup1\n      swap2\n      pop\n      pop\n      0x01\n      swap1\n      sub\n      swap1\n      0x00\n      mstore\n      keccak256(0x00, 0x20)\n      add\n      0x00\n      swap1\n      swap2\n      swap1\n      swap2\n      swap1\n      swap2\n      0x0100\n      exp\n      dup2\n      sload\n      dup2\n      0xffffffffffffffffffffffffffffffffffffffff\n      mul\n      not\n      and\n      swap1\n      dup4\n      0xffffffffffffffffffffffffffffffffffffffff\n      and\n      mul\n      or\n      swap1\n      sstore\n      pop\n        /* \"Lottery.sol\":1388:1401  unsoldTickets */\n      0x05\n      0x00\n        /* \"Lottery.sol\":1388:1403  unsoldTickets-- */\n      dup2\n      sload\n      dup1\n      swap3\n      swap2\n      swap1\n      tag_86\n      swap1\n      tag_87\n      jump\t// in\n    tag_86:\n      swap2\n      swap1\n      pop\n      sstore\n      pop\n        /* \"Lottery.sol\":1435:1445  msg.sender */\n      caller\n        /* \"Lottery.sol\":1419:1460  TicketPurchased(msg.sender, block.number) */\n      0xffffffffffffffffffffffffffffffffffffffff\n      and\n      0x0668f5b446eb814fe35b3206f43f14bd8567ba04ddaf7a3ee56516929ab22ccb\n        /* \"Lottery.sol\":1447:1459  block.number */\n      number\n        /* \"Lottery.sol\":1419:1460  TicketPurchased(msg.sender, block.number) */\n      mload(0x40)\n      tag_88\n      swap2\n      swap1\n      tag_15\n      jump\t// in\n    tag_88:\n      mload(0x40)\n      dup1\n      swap2\n      sub\n      swap1\n      log2\n        /* \"Lottery.sol\":889:1467  {... */\n      pop\n        /* \"Lottery.sol\":853:1467  function buyTicket() public payable {... */\n      jump\t// out\n        /* \"Lottery.sol\":206:230  address[] public players */\n    tag_46:\n      0x01\n      dup2\n      dup2\n      sload\n      dup2\n      lt\n      tag_89\n      jumpi\n      0x00\n      dup1\n      revert\n    tag_89:\n      swap1\n      0x00\n      mstore\n      keccak256(0x00, 0x20)\n      add\n      0x00\n      swap2\n      pop\n      sload\n      swap1\n      0x0100\n      exp\n      swap1\n      div\n      0xffffffffffffffffffffffffffffffffffffffff\n      and\n      dup2\n      jump\t// out\n    tag_84:\n      mload(0x40)\n      dup1\n      0x40\n      add\n      0x40\n      mstore\n      dup1\n      and(0xffffffffffffffffffffffffffffffffffffffff, 0x00)\n      dup2\n      mstore\n      0x20\n      add\n      iszero(iszero(0x00))\n      dup2\n      mstore\n      pop\n      swap1\n      jump\t// out\n        /* \"#utility.yul\":7:84   */\n    tag_91:\n        /* \"#utility.yul\":44:51   */\n      0x00\n        /* \"#utility.yul\":73:78   */\n      dup2\n        /* \"#utility.yul\":62:78   */\n      swap1\n      pop\n        /* \"#utility.yul\":7:84   */\n      swap2\n      swap1\n      pop\n      jump\t// out\n        /* \"#utility.yul\":90:208   */\n    tag_92:\n        /* \"#utility.yul\":177:201   */\n      tag_129\n        /* \"#utility.yul\":195:200   */\n      dup2\n        /* \"#utility.yul\":177:201   */\n      tag_91\n      jump\t// in\n    tag_129:\n        /* \"#utility.yul\":172:175   */\n      dup3\n        /* \"#utility.yul\":165:202   */\n      mstore\n        /* \"#utility.yul\":90:208   */\n      pop\n      pop\n      jump\t// out\n        /* \"#utility.yul\":214:436   */\n    tag_15:\n        /* \"#utility.yul\":307:311   */\n      0x00\n        /* \"#utility.yul\":345:347   */\n      0x20\n        /* \"#utility.yul\":334:343   */\n      dup3\n        /* \"#utility.yul\":330:348   */\n      add\n        /* \"#utility.yul\":322:348   */\n      swap1\n      pop\n        /* \"#utility.yul\":358:429   */\n      tag_131\n        /* \"#utility.yul\":426:427   */\n      0x00\n        /* \"#utility.yul\":415:424   */\n      dup4\n        /* \"#utility.yul\":411:428   */\n      add\n        /* \"#utility.yul\":402:408   */\n      dup5\n        /* \"#utility.yul\":358:429   */\n      tag_92\n      jump\t// in\n    tag_131:\n        /* \"#utility.yul\":214:436   */\n      swap3\n      swap2\n      pop\n      pop\n      jump\t// out\n        /* \"#utility.yul\":523:640   */\n    tag_94:\n        /* \"#utility.yul\":632:633   */\n      0x00\n        /* \"#utility.yul\":629:630   */\n      dup1\n        /* \"#utility.yul\":622:634   */\n      revert\n        /* \"#utility.yul\":769:895   */\n    tag_96:\n        /* \"#utility.yul\":806:813   */\n      0x00\n        /* \"#utility.yul\":846:888   */\n      0xffffffffffffffffffffffffffffffffffffffff\n        /* \"#utility.yul\":839:844   */\n      dup3\n        /* \"#utility.yul\":835:889   */\n      and\n        /* \"#utility.yul\":824:889   */\n      swap1\n      pop\n        /* \"#utility.yul\":769:895   */\n      swap2\n      swap1\n      pop\n      jump\t// out\n        /* \"#utility.yul\":901:997   */\n    tag_97:\n        /* \"#utility.yul\":938:945   */\n      0x00\n        /* \"#utility.yul\":967:991   */\n      tag_137\n        /* \"#utility.yul\":985:990   */\n      dup3\n        /* \"#utility.yul\":967:991   */\n      tag_96\n      jump\t// in\n    tag_137:\n        /* \"#utility.yul\":956:991   */\n      swap1\n      pop\n        /* \"#utility.yul\":901:997   */\n      swap2\n      swap1\n      pop\n      jump\t// out\n        /* \"#utility.yul\":1003:1125   */\n    tag_98:\n        /* \"#utility.yul\":1076:1100   */\n      tag_139\n        /* \"#utility.yul\":1094:1099   */\n      dup2\n        /* \"#utility.yul\":1076:1100   */\n      tag_97\n      jump\t// in\n    tag_139:\n        /* \"#utility.yul\":1069:1074   */\n      dup2\n        /* \"#utility.yul\":1066:1101   */\n      eq\n        /* \"#utility.yul\":1056:1119   */\n      tag_140\n      jumpi\n        /* \"#utility.yul\":1115:1116   */\n      0x00\n        /* \"#utility.yul\":1112:1113   */\n      dup1\n        /* \"#utility.yul\":1105:1117   */\n      revert\n        /* \"#utility.yul\":1056:1119   */\n    tag_140:\n        /* \"#utility.yul\":1003:1125   */\n      pop\n      jump\t// out\n        /* \"#utility.yul\":1131:1270   */\n    tag_99:\n        /* \"#utility.yul\":1177:1182   */\n      0x00\n        /* \"#utility.yul\":1215:1221   */\n      dup2\n        /* \"#utility.yul\":1202:1222   */\n      calldataload\n        /* \"#utility.yul\":1193:1222   */\n      swap1\n      pop\n        /* \"#utility.yul\":1231:1264   */\n      tag_142\n        /* \"#utility.yul\":1258:1263   */\n      dup2\n        /* \"#utility.yul\":1231:1264   */\n      tag_98\n      jump\t// in\n    tag_142:\n        /* \"#utility.yul\":1131:1270   */\n      swap3\n      swap2\n      pop\n      pop\n      jump\t// out\n        /* \"#utility.yul\":1276:1605   */\n    tag_27:\n        /* \"#utility.yul\":1335:1341   */\n      0x00\n        /* \"#utility.yul\":1384:1386   */\n      0x20\n        /* \"#utility.yul\":1372:1381   */\n      dup3\n        /* \"#utility.yul\":1363:1370   */\n      dup5\n        /* \"#utility.yul\":1359:1382   */\n      sub\n        /* \"#utility.yul\":1355:1387   */\n      slt\n        /* \"#utility.yul\":1352:1471   */\n      iszero\n      tag_144\n      jumpi\n        /* \"#utility.yul\":1390:1469   */\n      tag_145\n      tag_94\n      jump\t// in\n    tag_145:\n        /* \"#utility.yul\":1352:1471   */\n    tag_144:\n        /* \"#utility.yul\":1510:1511   */\n      0x00\n        /* \"#utility.yul\":1535:1588   */\n      tag_146\n        /* \"#utility.yul\":1580:1587   */\n      dup5\n        /* \"#utility.yul\":1571:1577   */\n      dup3\n        /* \"#utility.yul\":1560:1569   */\n      dup6\n        /* \"#utility.yul\":1556:1578   */\n      add\n        /* \"#utility.yul\":1535:1588   */\n      tag_99\n      jump\t// in\n    tag_146:\n        /* \"#utility.yul\":1525:1588   */\n      swap2\n      pop\n        /* \"#utility.yul\":1481:1598   */\n      pop\n        /* \"#utility.yul\":1276:1605   */\n      swap3\n      swap2\n      pop\n      pop\n      jump\t// out\n        /* \"#utility.yul\":1611:1715   */\n    tag_100:\n        /* \"#utility.yul\":1656:1663   */\n      0x00\n        /* \"#utility.yul\":1685:1709   */\n      tag_148\n        /* \"#utility.yul\":1703:1708   */\n      dup3\n        /* \"#utility.yul\":1685:1709   */\n      tag_96\n      jump\t// in\n    tag_148:\n        /* \"#utility.yul\":1674:1709   */\n      swap1\n      pop\n        /* \"#utility.yul\":1611:1715   */\n      swap2\n      swap1\n      pop\n      jump\t// out\n        /* \"#utility.yul\":1721:1863   */\n    tag_101:\n        /* \"#utility.yul\":1824:1856   */\n      tag_150\n        /* \"#utility.yul\":1850:1855   */\n      dup2\n        /* \"#utility.yul\":1824:1856   */\n      tag_100\n      jump\t// in\n    tag_150:\n        /* \"#utility.yul\":1819:1822   */\n      dup3\n        /* \"#utility.yul\":1812:1857   */\n      mstore\n        /* \"#utility.yul\":1721:1863   */\n      pop\n      pop\n      jump\t// out\n        /* \"#utility.yul\":1869:1959   */\n    tag_102:\n        /* \"#utility.yul\":1903:1910   */\n      0x00\n        /* \"#utility.yul\":1946:1951   */\n      dup2\n        /* \"#utility.yul\":1939:1952   */\n      iszero\n        /* \"#utility.yul\":1932:1953   */\n      iszero\n        /* \"#utility.yul\":1921:1953   */\n      swap1\n      pop\n        /* \"#utility.yul\":1869:1959   */\n      swap2\n      swap1\n      pop\n      jump\t// out\n        /* \"#utility.yul\":1965:2074   */\n    tag_103:\n        /* \"#utility.yul\":2046:2067   */\n      tag_153\n        /* \"#utility.yul\":2061:2066   */\n      dup2\n        /* \"#utility.yul\":2046:2067   */\n      tag_102\n      jump\t// in\n    tag_153:\n        /* \"#utility.yul\":2041:2044   */\n      dup3\n        /* \"#utility.yul\":2034:2068   */\n      mstore\n        /* \"#utility.yul\":1965:2074   */\n      pop\n      pop\n      jump\t// out\n        /* \"#utility.yul\":2080:2432   */\n    tag_30:\n        /* \"#utility.yul\":2211:2215   */\n      0x00\n        /* \"#utility.yul\":2249:2251   */\n      0x40\n        /* \"#utility.yul\":2238:2247   */\n      dup3\n        /* \"#utility.yul\":2234:2252   */\n      add\n        /* \"#utility.yul\":2226:2252   */\n      swap1\n      pop\n        /* \"#utility.yul\":2262:2349   */\n      tag_155\n        /* \"#utility.yul\":2346:2347   */\n      0x00\n        /* \"#utility.yul\":2335:2344   */\n      dup4\n        /* \"#utility.yul\":2331:2348   */\n      add\n        /* \"#utility.yul\":2322:2328   */\n      dup6\n        /* \"#utility.yul\":2262:2349   */\n      tag_101\n      jump\t// in\n    tag_155:\n        /* \"#utility.yul\":2359:2425   */\n      tag_156\n        /* \"#utility.yul\":2421:2423   */\n      0x20\n        /* \"#utility.yul\":2410:2419   */\n      dup4\n        /* \"#utility.yul\":2406:2424   */\n      add\n        /* \"#utility.yul\":2397:2403   */\n      dup5\n        /* \"#utility.yul\":2359:2425   */\n      tag_103\n      jump\t// in\n    tag_156:\n        /* \"#utility.yul\":2080:2432   */\n      swap4\n      swap3\n      pop\n      pop\n      pop\n      jump\t// out\n        /* \"#utility.yul\":2438:2556   */\n    tag_104:\n        /* \"#utility.yul\":2525:2549   */\n      tag_158\n        /* \"#utility.yul\":2543:2548   */\n      dup2\n        /* \"#utility.yul\":2525:2549   */\n      tag_97\n      jump\t// in\n    tag_158:\n        /* \"#utility.yul\":2520:2523   */\n      dup3\n        /* \"#utility.yul\":2513:2550   */\n      mstore\n        /* \"#utility.yul\":2438:2556   */\n      pop\n      pop\n      jump\t// out\n        /* \"#utility.yul\":2562:2784   */\n    tag_35:\n        /* \"#utility.yul\":2655:2659   */\n      0x00\n        /* \"#utility.yul\":2693:2695   */\n      0x20\n        /* \"#utility.yul\":2682:2691   */\n      dup3\n        /* \"#utility.yul\":2678:2696   */\n      add\n        /* \"#utility.yul\":2670:2696   */\n      swap1\n      pop\n        /* \"#utility.yul\":2706:2777   */\n      tag_160\n        /* \"#utility.yul\":2774:2775   */\n      0x00\n        /* \"#utility.yul\":2763:2772   */\n      dup4\n        /* \"#utility.yul\":2759:2776   */\n      add\n        /* \"#utility.yul\":2750:2756   */\n      dup5\n        /* \"#utility.yul\":2706:2777   */\n      tag_104\n      jump\t// in\n    tag_160:\n        /* \"#utility.yul\":2562:2784   */\n      swap3\n      swap2\n      pop\n      pop\n      jump\t// out\n        /* \"#utility.yul\":2790:2912   */\n    tag_105:\n        /* \"#utility.yul\":2863:2887   */\n      tag_162\n        /* \"#utility.yul\":2881:2886   */\n      dup2\n        /* \"#utility.yul\":2863:2887   */\n      tag_91\n      jump\t// in\n    tag_162:\n        /* \"#utility.yul\":2856:2861   */\n      dup2\n        /* \"#utility.yul\":2853:2888   */\n      eq\n        /* \"#utility.yul\":2843:2906   */\n      tag_163\n      jumpi\n        /* \"#utility.yul\":2902:2903   */\n      0x00\n        /* \"#utility.yul\":2899:2900   */\n      dup1\n        /* \"#utility.yul\":2892:2904   */\n      revert\n        /* \"#utility.yul\":2843:2906   */\n    tag_163:\n        /* \"#utility.yul\":2790:2912   */\n      pop\n      jump\t// out\n        /* \"#utility.yul\":2918:3057   */\n    tag_106:\n        /* \"#utility.yul\":2964:2969   */\n      0x00\n        /* \"#utility.yul\":3002:3008   */\n      dup2\n        /* \"#utility.yul\":2989:3009   */\n      calldataload\n        /* \"#utility.yul\":2980:3009   */\n      swap1\n      pop\n        /* \"#utility.yul\":3018:3051   */\n      tag_165\n        /* \"#utility.yul\":3045:3050   */\n      dup2\n        /* \"#utility.yul\":3018:3051   */\n      tag_105\n      jump\t// in\n    tag_165:\n        /* \"#utility.yul\":2918:3057   */\n      swap3\n      swap2\n      pop\n      pop\n      jump\t// out\n        /* \"#utility.yul\":3063:3392   */\n    tag_45:\n        /* \"#utility.yul\":3122:3128   */\n      0x00\n        /* \"#utility.yul\":3171:3173   */\n      0x20\n        /* \"#utility.yul\":3159:3168   */\n      dup3\n        /* \"#utility.yul\":3150:3157   */\n      dup5\n        /* \"#utility.yul\":3146:3169   */\n      sub\n        /* \"#utility.yul\":3142:3174   */\n      slt\n        /* \"#utility.yul\":3139:3258   */\n      iszero\n      tag_167\n      jumpi\n        /* \"#utility.yul\":3177:3256   */\n      tag_168\n      tag_94\n      jump\t// in\n    tag_168:\n        /* \"#utility.yul\":3139:3258   */\n    tag_167:\n        /* \"#utility.yul\":3297:3298   */\n      0x00\n        /* \"#utility.yul\":3322:3375   */\n      tag_169\n        /* \"#utility.yul\":3367:3374   */\n      dup5\n        /* \"#utility.yul\":3358:3364   */\n      dup3\n        /* \"#utility.yul\":3347:3356   */\n      dup6\n        /* \"#utility.yul\":3343:3365   */\n      add\n        /* \"#utility.yul\":3322:3375   */\n      tag_106\n      jump\t// in\n    tag_169:\n        /* \"#utility.yul\":3312:3375   */\n      swap2\n      pop\n        /* \"#utility.yul\":3268:3385   */\n      pop\n        /* \"#utility.yul\":3063:3392   */\n      swap3\n      swap2\n      pop\n      pop\n      jump\t// out\n        /* \"#utility.yul\":3398:3567   */\n    tag_107:\n        /* \"#utility.yul\":3482:3493   */\n      0x00\n        /* \"#utility.yul\":3516:3522   */\n      dup3\n        /* \"#utility.yul\":3511:3514   */\n      dup3\n        /* \"#utility.yul\":3504:3523   */\n      mstore\n        /* \"#utility.yul\":3556:3560   */\n      0x20\n        /* \"#utility.yul\":3551:3554   */\n      dup3\n        /* \"#utility.yul\":3547:3561   */\n      add\n        /* \"#utility.yul\":3532:3561   */\n      swap1\n      pop\n        /* \"#utility.yul\":3398:3567   */\n      swap3\n      swap2\n      pop\n      pop\n      jump\t// out\n        /* \"#utility.yul\":3573:3807   */\n    tag_108:\n        /* \"#utility.yul\":3713:3747   */\n      0x4f6e6c792074686520636f6e7472616374206f776e65722063616e2063616c6c\n        /* \"#utility.yul\":3709:3710   */\n      0x00\n        /* \"#utility.yul\":3701:3707   */\n      dup3\n        /* \"#utility.yul\":3697:3711   */\n      add\n        /* \"#utility.yul\":3690:3748   */\n      mstore\n        /* \"#utility.yul\":3782:3799   */\n      0x20746869732066756e6374696f6e2e0000000000000000000000000000000000\n        /* \"#utility.yul\":3777:3779   */\n      0x20\n        /* \"#utility.yul\":3769:3775   */\n      dup3\n        /* \"#utility.yul\":3765:3780   */\n      add\n        /* \"#utility.yul\":3758:3800   */\n      mstore\n        /* \"#utility.yul\":3573:3807   */\n      pop\n      jump\t// out\n        /* \"#utility.yul\":3813:4179   */\n    tag_109:\n        /* \"#utility.yul\":3955:3958   */\n      0x00\n        /* \"#utility.yul\":3976:4043   */\n      tag_173\n        /* \"#utility.yul\":4040:4042   */\n      0x2f\n        /* \"#utility.yul\":4035:4038   */\n      dup4\n        /* \"#utility.yul\":3976:4043   */\n      tag_107\n      jump\t// in\n    tag_173:\n        /* \"#utility.yul\":3969:4043   */\n      swap2\n      pop\n        /* \"#utility.yul\":4052:4145   */\n      tag_174\n        /* \"#utility.yul\":4141:4144   */\n      dup3\n        /* \"#utility.yul\":4052:4145   */\n      tag_108\n      jump\t// in\n    tag_174:\n        /* \"#utility.yul\":4170:4172   */\n      0x40\n        /* \"#utility.yul\":4165:4168   */\n      dup3\n        /* \"#utility.yul\":4161:4173   */\n      add\n        /* \"#utility.yul\":4154:4173   */\n      swap1\n      pop\n        /* \"#utility.yul\":3813:4179   */\n      swap2\n      swap1\n      pop\n      jump\t// out\n        /* \"#utility.yul\":4185:4604   */\n    tag_51:\n        /* \"#utility.yul\":4351:4355   */\n      0x00\n        /* \"#utility.yul\":4389:4391   */\n      0x20\n        /* \"#utility.yul\":4378:4387   */\n      dup3\n        /* \"#utility.yul\":4374:4392   */\n      add\n        /* \"#utility.yul\":4366:4392   */\n      swap1\n      pop\n        /* \"#utility.yul\":4438:4447   */\n      dup2\n        /* \"#utility.yul\":4432:4436   */\n      dup2\n        /* \"#utility.yul\":4428:4448   */\n      sub\n        /* \"#utility.yul\":4424:4425   */\n      0x00\n        /* \"#utility.yul\":4413:4422   */\n      dup4\n        /* \"#utility.yul\":4409:4426   */\n      add\n        /* \"#utility.yul\":4402:4449   */\n      mstore\n        /* \"#utility.yul\":4466:4597   */\n      tag_176\n        /* \"#utility.yul\":4592:4596   */\n      dup2\n        /* \"#utility.yul\":4466:4597   */\n      tag_109\n      jump\t// in\n    tag_176:\n        /* \"#utility.yul\":4458:4597   */\n      swap1\n      pop\n        /* \"#utility.yul\":4185:4604   */\n      swap2\n      swap1\n      pop\n      jump\t// out\n        /* \"#utility.yul\":4610:4790   */\n    tag_110:\n        /* \"#utility.yul\":4658:4735   */\n      0x4e487b7100000000000000000000000000000000000000000000000000000000\n        /* \"#utility.yul\":4655:4656   */\n      0x00\n        /* \"#utility.yul\":4648:4736   */\n      mstore\n        /* \"#utility.yul\":4755:4759   */\n      0x12\n        /* \"#utility.yul\":4752:4753   */\n      0x04\n        /* \"#utility.yul\":4745:4760   */\n      mstore\n        /* \"#utility.yul\":4779:4783   */\n      0x24\n        /* \"#utility.yul\":4776:4777   */\n      0x00\n        /* \"#utility.yul\":4769:4784   */\n      revert\n        /* \"#utility.yul\":4796:4976   */\n    tag_111:\n        /* \"#utility.yul\":4844:4921   */\n      0x4e487b7100000000000000000000000000000000000000000000000000000000\n        /* \"#utility.yul\":4841:4842   */\n      0x00\n        /* \"#utility.yul\":4834:4922   */\n      mstore\n        /* \"#utility.yul\":4941:4945   */\n      0x11\n        /* \"#utility.yul\":4938:4939   */\n      0x04\n        /* \"#utility.yul\":4931:4946   */\n      mstore\n        /* \"#utility.yul\":4965:4969   */\n      0x24\n        /* \"#utility.yul\":4962:4963   */\n      0x00\n        /* \"#utility.yul\":4955:4970   */\n      revert\n        /* \"#utility.yul\":4982:5167   */\n    tag_54:\n        /* \"#utility.yul\":5022:5023   */\n      0x00\n        /* \"#utility.yul\":5039:5059   */\n      tag_180\n        /* \"#utility.yul\":5057:5058   */\n      dup3\n        /* \"#utility.yul\":5039:5059   */\n      tag_91\n      jump\t// in\n    tag_180:\n        /* \"#utility.yul\":5034:5059   */\n      swap2\n      pop\n        /* \"#utility.yul\":5073:5093   */\n      tag_181\n        /* \"#utility.yul\":5091:5092   */\n      dup4\n        /* \"#utility.yul\":5073:5093   */\n      tag_91\n      jump\t// in\n    tag_181:\n        /* \"#utility.yul\":5068:5093   */\n      swap3\n      pop\n        /* \"#utility.yul\":5112:5113   */\n      dup3\n        /* \"#utility.yul\":5102:5137   */\n      tag_182\n      jumpi\n        /* \"#utility.yul\":5117:5135   */\n      tag_183\n      tag_110\n      jump\t// in\n    tag_183:\n        /* \"#utility.yul\":5102:5137   */\n    tag_182:\n        /* \"#utility.yul\":5159:5160   */\n      dup3\n        /* \"#utility.yul\":5156:5157   */\n      dup3\n        /* \"#utility.yul\":5152:5161   */\n      div\n        /* \"#utility.yul\":5147:5161   */\n      swap1\n      pop\n        /* \"#utility.yul\":4982:5167   */\n      swap3\n      swap2\n      pop\n      pop\n      jump\t// out\n        /* \"#utility.yul\":5173:5394   */\n    tag_112:\n        /* \"#utility.yul\":5313:5347   */\n      0x4e6f7420656e6f756768207469636b6574732068617665206265656e20736f6c\n        /* \"#utility.yul\":5309:5310   */\n      0x00\n        /* \"#utility.yul\":5301:5307   */\n      dup3\n        /* \"#utility.yul\":5297:5311   */\n      add\n        /* \"#utility.yul\":5290:5348   */\n      mstore\n        /* \"#utility.yul\":5382:5386   */\n      0x642e000000000000000000000000000000000000000000000000000000000000\n        /* \"#utility.yul\":5377:5379   */\n      0x20\n        /* \"#utility.yul\":5369:5375   */\n      dup3\n        /* \"#utility.yul\":5365:5380   */\n      add\n        /* \"#utility.yul\":5358:5387   */\n      mstore\n        /* \"#utility.yul\":5173:5394   */\n      pop\n      jump\t// out\n        /* \"#utility.yul\":5400:5766   */\n    tag_113:\n        /* \"#utility.yul\":5542:5545   */\n      0x00\n        /* \"#utility.yul\":5563:5630   */\n      tag_186\n        /* \"#utility.yul\":5627:5629   */\n      0x22\n        /* \"#utility.yul\":5622:5625   */\n      dup4\n        /* \"#utility.yul\":5563:5630   */\n      tag_107\n      jump\t// in\n    tag_186:\n        /* \"#utility.yul\":5556:5630   */\n      swap2\n      pop\n        /* \"#utility.yul\":5639:5732   */\n      tag_187\n        /* \"#utility.yul\":5728:5731   */\n      dup3\n        /* \"#utility.yul\":5639:5732   */\n      tag_112\n      jump\t// in\n    tag_187:\n        /* \"#utility.yul\":5757:5759   */\n      0x40\n        /* \"#utility.yul\":5752:5755   */\n      dup3\n        /* \"#utility.yul\":5748:5760   */\n      add\n        /* \"#utility.yul\":5741:5760   */\n      swap1\n      pop\n        /* \"#utility.yul\":5400:5766   */\n      swap2\n      swap1\n      pop\n      jump\t// out\n        /* \"#utility.yul\":5772:6191   */\n    tag_57:\n        /* \"#utility.yul\":5938:5942   */\n      0x00\n        /* \"#utility.yul\":5976:5978   */\n      0x20\n        /* \"#utility.yul\":5965:5974   */\n      dup3\n        /* \"#utility.yul\":5961:5979   */\n      add\n        /* \"#utility.yul\":5953:5979   */\n      swap1\n      pop\n        /* \"#utility.yul\":6025:6034   */\n      dup2\n        /* \"#utility.yul\":6019:6023   */\n      dup2\n        /* \"#utility.yul\":6015:6035   */\n      sub\n        /* \"#utility.yul\":6011:6012   */\n      0x00\n        /* \"#utility.yul\":6000:6009   */\n      dup4\n        /* \"#utility.yul\":5996:6013   */\n      add\n        /* \"#utility.yul\":5989:6036   */\n      mstore\n        /* \"#utility.yul\":6053:6184   */\n      tag_189\n        /* \"#utility.yul\":6179:6183   */\n      dup2\n        /* \"#utility.yul\":6053:6184   */\n      tag_113\n      jump\t// in\n    tag_189:\n        /* \"#utility.yul\":6045:6184   */\n      swap1\n      pop\n        /* \"#utility.yul\":5772:6191   */\n      swap2\n      swap1\n      pop\n      jump\t// out\n        /* \"#utility.yul\":6197:6391   */\n    tag_59:\n        /* \"#utility.yul\":6237:6241   */\n      0x00\n        /* \"#utility.yul\":6257:6277   */\n      tag_191\n        /* \"#utility.yul\":6275:6276   */\n      dup3\n        /* \"#utility.yul\":6257:6277   */\n      tag_91\n      jump\t// in\n    tag_191:\n        /* \"#utility.yul\":6252:6277   */\n      swap2\n      pop\n        /* \"#utility.yul\":6291:6311   */\n      tag_192\n        /* \"#utility.yul\":6309:6310   */\n      dup4\n        /* \"#utility.yul\":6291:6311   */\n      tag_91\n      jump\t// in\n    tag_192:\n        /* \"#utility.yul\":6286:6311   */\n      swap3\n      pop\n        /* \"#utility.yul\":6335:6336   */\n      dup3\n        /* \"#utility.yul\":6332:6333   */\n      dup3\n        /* \"#utility.yul\":6328:6337   */\n      sub\n        /* \"#utility.yul\":6320:6337   */\n      swap1\n      pop\n        /* \"#utility.yul\":6359:6360   */\n      dup2\n        /* \"#utility.yul\":6353:6357   */\n      dup2\n        /* \"#utility.yul\":6350:6361   */\n      gt\n        /* \"#utility.yul\":6347:6384   */\n      iszero\n      tag_193\n      jumpi\n        /* \"#utility.yul\":6364:6382   */\n      tag_194\n      tag_111\n      jump\t// in\n    tag_194:\n        /* \"#utility.yul\":6347:6384   */\n    tag_193:\n        /* \"#utility.yul\":6197:6391   */\n      swap3\n      swap2\n      pop\n      pop\n      jump\t// out\n        /* \"#utility.yul\":6397:6476   */\n    tag_114:\n        /* \"#utility.yul\":6436:6443   */\n      0x00\n        /* \"#utility.yul\":6465:6470   */\n      dup2\n        /* \"#utility.yul\":6454:6470   */\n      swap1\n      pop\n        /* \"#utility.yul\":6397:6476   */\n      swap2\n      swap1\n      pop\n      jump\t// out\n        /* \"#utility.yul\":6482:6639   */\n    tag_115:\n        /* \"#utility.yul\":6587:6632   */\n      tag_197\n        /* \"#utility.yul\":6607:6631   */\n      tag_198\n        /* \"#utility.yul\":6625:6630   */\n      dup3\n        /* \"#utility.yul\":6607:6631   */\n      tag_91\n      jump\t// in\n    tag_198:\n        /* \"#utility.yul\":6587:6632   */\n      tag_114\n      jump\t// in\n    tag_197:\n        /* \"#utility.yul\":6582:6585   */\n      dup3\n        /* \"#utility.yul\":6575:6633   */\n      mstore\n        /* \"#utility.yul\":6482:6639   */\n      pop\n      pop\n      jump\t// out\n        /* \"#utility.yul\":6645:6739   */\n    tag_116:\n        /* \"#utility.yul\":6678:6686   */\n      0x00\n        /* \"#utility.yul\":6726:6731   */\n      dup2\n        /* \"#utility.yul\":6722:6724   */\n      0x60\n        /* \"#utility.yul\":6718:6732   */\n      shl\n        /* \"#utility.yul\":6697:6732   */\n      swap1\n      pop\n        /* \"#utility.yul\":6645:6739   */\n      swap2\n      swap1\n      pop\n      jump\t// out\n        /* \"#utility.yul\":6745:6839   */\n    tag_117:\n        /* \"#utility.yul\":6784:6791   */\n      0x00\n        /* \"#utility.yul\":6813:6833   */\n      tag_201\n        /* \"#utility.yul\":6827:6832   */\n      dup3\n        /* \"#utility.yul\":6813:6833   */\n      tag_116\n      jump\t// in\n    tag_201:\n        /* \"#utility.yul\":6802:6833   */\n      swap1\n      pop\n        /* \"#utility.yul\":6745:6839   */\n      swap2\n      swap1\n      pop\n      jump\t// out\n        /* \"#utility.yul\":6845:6945   */\n    tag_118:\n        /* \"#utility.yul\":6884:6891   */\n      0x00\n        /* \"#utility.yul\":6913:6939   */\n      tag_203\n        /* \"#utility.yul\":6933:6938   */\n      dup3\n        /* \"#utility.yul\":6913:6939   */\n      tag_117\n      jump\t// in\n    tag_203:\n        /* \"#utility.yul\":6902:6939   */\n      swap1\n      pop\n        /* \"#utility.yul\":6845:6945   */\n      swap2\n      swap1\n      pop\n      jump\t// out\n        /* \"#utility.yul\":6951:7108   */\n    tag_119:\n        /* \"#utility.yul\":7056:7101   */\n      tag_205\n        /* \"#utility.yul\":7076:7100   */\n      tag_206\n        /* \"#utility.yul\":7094:7099   */\n      dup3\n        /* \"#utility.yul\":7076:7100   */\n      tag_97\n      jump\t// in\n    tag_206:\n        /* \"#utility.yul\":7056:7101   */\n      tag_118\n      jump\t// in\n    tag_205:\n        /* \"#utility.yul\":7051:7054   */\n      dup3\n        /* \"#utility.yul\":7044:7102   */\n      mstore\n        /* \"#utility.yul\":6951:7108   */\n      pop\n      pop\n      jump\t// out\n        /* \"#utility.yul\":7114:7652   */\n    tag_61:\n        /* \"#utility.yul\":7282:7285   */\n      0x00\n        /* \"#utility.yul\":7297:7372   */\n      tag_208\n        /* \"#utility.yul\":7368:7371   */\n      dup3\n        /* \"#utility.yul\":7359:7365   */\n      dup7\n        /* \"#utility.yul\":7297:7372   */\n      tag_115\n      jump\t// in\n    tag_208:\n        /* \"#utility.yul\":7397:7399   */\n      0x20\n        /* \"#utility.yul\":7392:7395   */\n      dup3\n        /* \"#utility.yul\":7388:7400   */\n      add\n        /* \"#utility.yul\":7381:7400   */\n      swap2\n      pop\n        /* \"#utility.yul\":7410:7485   */\n      tag_209\n        /* \"#utility.yul\":7481:7484   */\n      dup3\n        /* \"#utility.yul\":7472:7478   */\n      dup6\n        /* \"#utility.yul\":7410:7485   */\n      tag_119\n      jump\t// in\n    tag_209:\n        /* \"#utility.yul\":7510:7512   */\n      0x14\n        /* \"#utility.yul\":7505:7508   */\n      dup3\n        /* \"#utility.yul\":7501:7513   */\n      add\n        /* \"#utility.yul\":7494:7513   */\n      swap2\n      pop\n        /* \"#utility.yul\":7523:7598   */\n      tag_210\n        /* \"#utility.yul\":7594:7597   */\n      dup3\n        /* \"#utility.yul\":7585:7591   */\n      dup5\n        /* \"#utility.yul\":7523:7598   */\n      tag_115\n      jump\t// in\n    tag_210:\n        /* \"#utility.yul\":7623:7625   */\n      0x20\n        /* \"#utility.yul\":7618:7621   */\n      dup3\n        /* \"#utility.yul\":7614:7626   */\n      add\n        /* \"#utility.yul\":7607:7626   */\n      swap2\n      pop\n        /* \"#utility.yul\":7643:7646   */\n      dup2\n        /* \"#utility.yul\":7636:7646   */\n      swap1\n      pop\n        /* \"#utility.yul\":7114:7652   */\n      swap5\n      swap4\n      pop\n      pop\n      pop\n      pop\n      jump\t// out\n        /* \"#utility.yul\":7658:7834   */\n    tag_63:\n        /* \"#utility.yul\":7690:7691   */\n      0x00\n        /* \"#utility.yul\":7707:7727   */\n      tag_212\n        /* \"#utility.yul\":7725:7726   */\n      dup3\n        /* \"#utility.yul\":7707:7727   */\n      tag_91\n      jump\t// in\n    tag_212:\n        /* \"#utility.yul\":7702:7727   */\n      swap2\n      pop\n        /* \"#utility.yul\":7741:7761   */\n      tag_213\n        /* \"#utility.yul\":7759:7760   */\n      dup4\n        /* \"#utility.yul\":7741:7761   */\n      tag_91\n      jump\t// in\n    tag_213:\n        /* \"#utility.yul\":7736:7761   */\n      swap3\n      pop\n        /* \"#utility.yul\":7780:7781   */\n      dup3\n        /* \"#utility.yul\":7770:7805   */\n      tag_214\n      jumpi\n        /* \"#utility.yul\":7785:7803   */\n      tag_215\n      tag_110\n      jump\t// in\n    tag_215:\n        /* \"#utility.yul\":7770:7805   */\n    tag_214:\n        /* \"#utility.yul\":7826:7827   */\n      dup3\n        /* \"#utility.yul\":7823:7824   */\n      dup3\n        /* \"#utility.yul\":7819:7828   */\n      mod\n        /* \"#utility.yul\":7814:7828   */\n      swap1\n      pop\n        /* \"#utility.yul\":7658:7834   */\n      swap3\n      swap2\n      pop\n      pop\n      jump\t// out\n        /* \"#utility.yul\":7840:8073   */\n    tag_65:\n        /* \"#utility.yul\":7879:7882   */\n      0x00\n        /* \"#utility.yul\":7902:7926   */\n      tag_217\n        /* \"#utility.yul\":7920:7925   */\n      dup3\n        /* \"#utility.yul\":7902:7926   */\n      tag_91\n      jump\t// in\n    tag_217:\n        /* \"#utility.yul\":7893:7926   */\n      swap2\n      pop\n        /* \"#utility.yul\":7948:8014   */\n      0xffffffffffffffffffffffffffffffffffffffffffffffffffffffffffffffff\n        /* \"#utility.yul\":7941:7946   */\n      dup3\n        /* \"#utility.yul\":7938:8015   */\n      sub\n        /* \"#utility.yul\":7935:8038   */\n      tag_218\n      jumpi\n        /* \"#utility.yul\":8018:8036   */\n      tag_219\n      tag_111\n      jump\t// in\n    tag_219:\n        /* \"#utility.yul\":7935:8038   */\n    tag_218:\n        /* \"#utility.yul\":8065:8066   */\n      0x01\n        /* \"#utility.yul\":8058:8063   */\n      dup3\n        /* \"#utility.yul\":8054:8067   */\n      add\n        /* \"#utility.yul\":8047:8067   */\n      swap1\n      pop\n        /* \"#utility.yul\":7840:8073   */\n      swap2\n      swap1\n      pop\n      jump\t// out\n        /* \"#utility.yul\":8079:8259   */\n    tag_68:\n        /* \"#utility.yul\":8127:8204   */\n      0x4e487b7100000000000000000000000000000000000000000000000000000000\n        /* \"#utility.yul\":8124:8125   */\n      0x00\n        /* \"#utility.yul\":8117:8205   */\n      mstore\n        /* \"#utility.yul\":8224:8228   */\n      0x32\n        /* \"#utility.yul\":8221:8222   */\n      0x04\n        /* \"#utility.yul\":8214:8229   */\n      mstore\n        /* \"#utility.yul\":8248:8252   */\n      0x24\n        /* \"#utility.yul\":8245:8246   */\n      0x00\n        /* \"#utility.yul\":8238:8253   */\n      revert\n        /* \"#utility.yul\":8265:8436   */\n    tag_120:\n        /* \"#utility.yul\":8405:8428   */\n      0x5469636b6574732061726520736f6c64206f75742e0000000000000000000000\n        /* \"#utility.yul\":8401:8402   */\n      0x00\n        /* \"#utility.yul\":8393:8399   */\n      dup3\n        /* \"#utility.yul\":8389:8403   */\n      add\n        /* \"#utility.yul\":8382:8429   */\n      mstore\n        /* \"#utility.yul\":8265:8436   */\n      pop\n      jump\t// out\n        /* \"#utility.yul\":8442:8808   */\n    tag_121:\n        /* \"#utility.yul\":8584:8587   */\n      0x00\n        /* \"#utility.yul\":8605:8672   */\n      tag_223\n        /* \"#utility.yul\":8669:8671   */\n      0x15\n        /* \"#utility.yul\":8664:8667   */\n      dup4\n        /* \"#utility.yul\":8605:8672   */\n      tag_107\n      jump\t// in\n    tag_223:\n        /* \"#utility.yul\":8598:8672   */\n      swap2\n      pop\n        /* \"#utility.yul\":8681:8774   */\n      tag_224\n        /* \"#utility.yul\":8770:8773   */\n      dup3\n        /* \"#utility.yul\":8681:8774   */\n      tag_120\n      jump\t// in\n    tag_224:\n        /* \"#utility.yul\":8799:8801   */\n      0x20\n        /* \"#utility.yul\":8794:8797   */\n      dup3\n        /* \"#utility.yul\":8790:8802   */\n      add\n        /* \"#utility.yul\":8783:8802   */\n      swap1\n      pop\n        /* \"#utility.yul\":8442:8808   */\n      swap2\n      swap1\n      pop\n      jump\t// out\n        /* \"#utility.yul\":8814:9233   */\n    tag_76:\n        /* \"#utility.yul\":8980:8984   */\n      0x00\n        /* \"#utility.yul\":9018:9020   */\n      0x20\n        /* \"#utility.yul\":9007:9016   */\n      dup3\n        /* \"#utility.yul\":9003:9021   */\n      add\n        /* \"#utility.yul\":8995:9021   */\n      swap1\n      pop\n        /* \"#utility.yul\":9067:9076   */\n      dup2\n        /* \"#utility.yul\":9061:9065   */\n      dup2\n        /* \"#utility.yul\":9057:9077   */\n      sub\n        /* \"#utility.yul\":9053:9054   */\n      0x00\n        /* \"#utility.yul\":9042:9051   */\n      dup4\n        /* \"#utility.yul\":9038:9055   */\n      add\n        /* \"#utility.yul\":9031:9078   */\n      mstore\n        /* \"#utility.yul\":9095:9226   */\n      tag_226\n        /* \"#utility.yul\":9221:9225   */\n      dup2\n        /* \"#utility.yul\":9095:9226   */\n      tag_121\n      jump\t// in\n    tag_226:\n        /* \"#utility.yul\":9087:9226   */\n      swap1\n      pop\n        /* \"#utility.yul\":8814:9233   */\n      swap2\n      swap1\n      pop\n      jump\t// out\n        /* \"#utility.yul\":9239:9471   */\n    tag_122:\n        /* \"#utility.yul\":9379:9413   */\n      0x4f6e6c79206f6e65207469636b65742070657220616464726573732063616e20\n        /* \"#utility.yul\":9375:9376   */\n      0x00\n        /* \"#utility.yul\":9367:9373   */\n      dup3\n        /* \"#utility.yul\":9363:9377   */\n      add\n        /* \"#utility.yul\":9356:9414   */\n      mstore\n        /* \"#utility.yul\":9448:9463   */\n      0x6265207075726368617365642e00000000000000000000000000000000000000\n        /* \"#utility.yul\":9443:9445   */\n      0x20\n        /* \"#utility.yul\":9435:9441   */\n      dup3\n        /* \"#utility.yul\":9431:9446   */\n      add\n        /* \"#utility.yul\":9424:9464   */\n      mstore\n        /* \"#utility.yul\":9239:9471   */\n      pop\n      jump\t// out\n        /* \"#utility.yul\":9477:9843   */\n    tag_123:\n        /* \"#utility.yul\":9619:9622   */\n      0x00\n        /* \"#utility.yul\":9640:9707   */\n      tag_229\n        /* \"#utility.yul\":9704:9706   */\n      0x2d\n        /* \"#utility.yul\":9699:9702   */\n      dup4\n        /* \"#utility.yul\":9640:9707   */\n      tag_107\n      jump\t// in\n    tag_229:\n        /* \"#utility.yul\":9633:9707   */\n      swap2\n      pop\n        /* \"#utility.yul\":9716:9809   */\n      tag_230\n        /* \"#utility.yul\":9805:9808   */\n      dup3\n        /* \"#utility.yul\":9716:9809   */\n      tag_122\n      jump\t// in\n    tag_230:\n        /* \"#utility.yul\":9834:9836   */\n      0x40\n        /* \"#utility.yul\":9829:9832   */\n      dup3\n        /* \"#utility.yul\":9825:9837   */\n      add\n        /* \"#utility.yul\":9818:9837   */\n      swap1\n      pop\n        /* \"#utility.yul\":9477:9843   */\n      swap2\n      swap1\n      pop\n      jump\t// out\n        /* \"#utility.yul\":9849:10268   */\n    tag_79:\n        /* \"#utility.yul\":10015:10019   */\n      0x00\n        /* \"#utility.yul\":10053:10055   */\n      0x20\n        /* \"#utility.yul\":10042:10051   */\n      dup3\n        /* \"#utility.yul\":10038:10056   */\n      add\n        /* \"#utility.yul\":10030:10056   */\n      swap1\n      pop\n        /* \"#utility.yul\":10102:10111   */\n      dup2\n        /* \"#utility.yul\":10096:10100   */\n      dup2\n        /* \"#utility.yul\":10092:10112   */\n      sub\n        /* \"#utility.yul\":10088:10089   */\n      0x00\n        /* \"#utility.yul\":10077:10086   */\n      dup4\n        /* \"#utility.yul\":10073:10090   */\n      add\n        /* \"#utility.yul\":10066:10113   */\n      mstore\n        /* \"#utility.yul\":10130:10261   */\n      tag_232\n        /* \"#utility.yul\":10256:10260   */\n      dup2\n        /* \"#utility.yul\":10130:10261   */\n      tag_123\n      jump\t// in\n    tag_232:\n        /* \"#utility.yul\":10122:10261   */\n      swap1\n      pop\n        /* \"#utility.yul\":9849:10268   */\n      swap2\n      swap1\n      pop\n      jump\t// out\n        /* \"#utility.yul\":10274:10506   */\n    tag_124:\n        /* \"#utility.yul\":10414:10448   */\n      0x456974686572206e6f7420656e6f756768206f7220746f6f206d756368204574\n        /* \"#utility.yul\":10410:10411   */\n      0x00\n        /* \"#utility.yul\":10402:10408   */\n      dup3\n        /* \"#utility.yul\":10398:10412   */\n      add\n        /* \"#utility.yul\":10391:10449   */\n      mstore\n        /* \"#utility.yul\":10483:10498   */\n      0x686572207761732073656e742e00000000000000000000000000000000000000\n        /* \"#utility.yul\":10478:10480   */\n      0x20\n        /* \"#utility.yul\":10470:10476   */\n      dup3\n        /* \"#utility.yul\":10466:10481   */\n      add\n        /* \"#utility.yul\":10459:10499   */\n      mstore\n        /* \"#utility.yul\":10274:10506   */\n      pop\n      jump\t// out\n        /* \"#utility.yul\":10512:10878   */\n    tag_125:\n        /* \"#utility.yul\":10654:10657   */\n      0x00\n        /* \"#utility.yul\":10675:10742   */\n      tag_235\n        /* \"#utility.yul\":10739:10741   */\n      0x2d\n        /* \"#utility.yul\":10734:10737   */\n      dup4\n        /* \"#utility.yul\":10675:10742   */\n      tag_107\n      jump\t// in\n    tag_235:\n        /* \"#utility.yul\":10668:10742   */\n      swap2\n      pop\n        /* \"#utility.yul\":10751:10844   */\n      tag_236\n        /* \"#utility.yul\":10840:10843   */\n      dup3\n        /* \"#utility.yul\":10751:10844   */\n      tag_124\n      jump\t// in\n    tag_236:\n        /* \"#utility.yul\":10869:10871   */\n      0x40\n        /* \"#utility.yul\":10864:10867   */\n      dup3\n        /* \"#utility.yul\":10860:10872   */\n      add\n        /* \"#utility.yul\":10853:10872   */\n      swap1\n      pop\n        /* \"#utility.yul\":10512:10878   */\n      swap2\n      swap1\n      pop\n      jump\t// out\n        /* \"#utility.yul\":10884:11303   */\n    tag_82:\n        /* \"#utility.yul\":11050:11054   */\n      0x00\n        /* \"#utility.yul\":11088:11090   */\n      0x20\n        /* \"#utility.yul\":11077:11086   */\n      dup3\n        /* \"#utility.yul\":11073:11091   */\n      add\n        /* \"#utility.yul\":11065:11091   */\n      swap1\n      pop\n        /* \"#utility.yul\":11137:11146   */\n      dup2\n        /* \"#utility.yul\":11131:11135   */\n      dup2\n        /* \"#utility.yul\":11127:11147   */\n      sub\n        /* \"#utility.yul\":11123:11124   */\n      0x00\n        /* \"#utility.yul\":11112:11121   */\n      dup4\n        /* \"#utility.yul\":11108:11125   */\n      add\n        /* \"#utility.yul\":11101:11148   */\n      mstore\n        /* \"#utility.yul\":11165:11296   */\n      tag_238\n        /* \"#utility.yul\":11291:11295   */\n      dup2\n        /* \"#utility.yul\":11165:11296   */\n      tag_125\n      jump\t// in\n    tag_238:\n        /* \"#utility.yul\":11157:11296   */\n      swap1\n      pop\n        /* \"#utility.yul\":10884:11303   */\n      swap2\n      swap1\n      pop\n      jump\t// out\n        /* \"#utility.yul\":11309:11480   */\n    tag_87:\n        /* \"#utility.yul\":11348:11351   */\n      0x00\n        /* \"#utility.yul\":11371:11395   */\n      tag_240\n        /* \"#utility.yul\":11389:11394   */\n      dup3\n        /* \"#utility.yul\":11371:11395   */\n      tag_91\n      jump\t// in\n    tag_240:\n        /* \"#utility.yul\":11362:11395   */\n      swap2\n      pop\n        /* \"#utility.yul\":11417:11421   */\n      0x00\n        /* \"#utility.yul\":11410:11415   */\n      dup3\n        /* \"#utility.yul\":11407:11422   */\n      sub\n        /* \"#utility.yul\":11404:11445   */\n      tag_241\n      jumpi\n        /* \"#utility.yul\":11425:11443   */\n      tag_242\n      tag_111\n      jump\t// in\n    tag_242:\n        /* \"#utility.yul\":11404:11445   */\n    tag_241:\n        /* \"#utility.yul\":11472:11473   */\n      0x01\n        /* \"#utility.yul\":11465:11470   */\n      dup3\n        /* \"#utility.yul\":11461:11474   */\n      sub\n        /* \"#utility.yul\":11454:11474   */\n      swap1\n      pop\n        /* \"#utility.yul\":11309:11480   */\n      swap2\n      swap1\n      pop\n      jump\t// out\n\n    auxdata: 0xa264697066735822122095fe0c5410d79907cc7c1e77037fbbd538bb0bf2f7afab54585b9afa4370fcc164736f6c63430008120033\n}\n",
				"bytecode": {
					"linkReferences": {},
					"object": "6080604052670de0b6b3a764000060065534801561001c57600080fd5b50604051610fd3380380610fd3833981810160405281019061003e91906100cf565b336000806101000a81548173ffffffffffffffffffffffffffffffffffffffff021916908373ffffffffffffffffffffffffffffffffffffffff16021790555080600481905550600454600581905550506100fc565b600080fd5b6000819050919050565b6100ac81610099565b81146100b757600080fd5b50565b6000815190506100c9816100a3565b92915050565b6000602082840312156100e5576100e4610094565b5b60006100f3848285016100ba565b91505092915050565b610ec88061010b6000396000f3fe60806040526004361061007b5760003560e01c80638da5cb5b1161004e5780638da5cb5b1461013f578063b2185bb11461016a578063edca914c14610195578063f71d96cb1461019f5761007b565b80631209b1f6146100805780632240dbdb146100ab578063333c1992146100d65780636dcbf2a314610101575b600080fd5b34801561008c57600080fd5b506100956101dc565b6040516100a29190610800565b60405180910390f35b3480156100b757600080fd5b506100c06101e2565b6040516100cd9190610800565b60405180910390f35b3480156100e257600080fd5b506100eb6101e8565b6040516100f89190610800565b60405180910390f35b34801561010d57600080fd5b506101286004803603810190610123919061087e565b6101ee565b6040516101369291906108e7565b60405180910390f35b34801561014b57600080fd5b5061015461023f565b604051610161919061091f565b60405180910390f35b34801561017657600080fd5b5061017f610263565b60405161018c919061091f565b60405180910390f35b61019d61048c565b005b3480156101ab57600080fd5b506101c660048036038101906101c19190610966565b610776565b6040516101d3919061091f565b60405180910390f35b60065481565b60045481565b60055481565b60026020528060005260406000206000915090508060000160009054906101000a900473ffffffffffffffffffffffffffffffffffffffff16908060000160149054906101000a900460ff16905082565b60008054906101000a900473ffffffffffffffffffffffffffffffffffffffff1681565b60008060009054906101000a900473ffffffffffffffffffffffffffffffffffffffff1673ffffffffffffffffffffffffffffffffffffffff163373ffffffffffffffffffffffffffffffffffffffff16146102f4576040517f08c379a00000000000000000000000000000000000000000000000000000000081526004016102eb90610a16565b60405180910390fd5b60026004546103039190610a94565b60055410610346576040517f08c379a000000000000000000000000000000000000000000000000000000000815260040161033d90610b37565b60405180910390fd5b60006005546004546103589190610b57565b423360035460405160200161036f93929190610bf4565b6040516020818303038152906040528051906020012060001c6103929190610c31565b9050600360008154809291906103a790610c62565b91905055506000600182815481106103c2576103c1610caa565b5b9060005260206000200160009054906101000a900473ffffffffffffffffffffffffffffffffffffffff1690508073ffffffffffffffffffffffffffffffffffffffff166108fc479081150290604051600060405180830381858888f19350505050158015610435573d6000803e3d6000fd5b508073ffffffffffffffffffffffffffffffffffffffff167f2e798dd4337e515c79b64c40e1a93baa1aefbd9180ac7905e02508edd7971e504360405161047c9190610800565b60405180910390a2809250505090565b6000600554116104d1576040517f08c379a00000000000000000000000000000000000000000000000000000000081526004016104c890610d25565b60405180910390fd5b60001515600260003373ffffffffffffffffffffffffffffffffffffffff1673ffffffffffffffffffffffffffffffffffffffff16815260200190815260200160002060000160149054906101000a900460ff16151514610567576040517f08c379a000000000000000000000000000000000000000000000000000000000815260040161055e90610db7565b60405180910390fd5b60065434146105ab576040517f08c379a00000000000000000000000000000000000000000000000000000000081526004016105a290610e49565b60405180910390fd5b6105b36107b5565b33816000019073ffffffffffffffffffffffffffffffffffffffff16908173ffffffffffffffffffffffffffffffffffffffff1681525050600181602001901515908115158152505080600260003373ffffffffffffffffffffffffffffffffffffffff1673ffffffffffffffffffffffffffffffffffffffff16815260200190815260200160002060008201518160000160006101000a81548173ffffffffffffffffffffffffffffffffffffffff021916908373ffffffffffffffffffffffffffffffffffffffff16021790555060208201518160000160146101000a81548160ff021916908315150217905550905050600181600001519080600181540180825580915050600190039060005260206000200160009091909190916101000a81548173ffffffffffffffffffffffffffffffffffffffff021916908373ffffffffffffffffffffffffffffffffffffffff1602179055506005600081548092919061072090610e69565b91905055503373ffffffffffffffffffffffffffffffffffffffff167f0668f5b446eb814fe35b3206f43f14bd8567ba04ddaf7a3ee56516929ab22ccb4360405161076b9190610800565b60405180910390a250565b6001818154811061078657600080fd5b906000526020600020016000915054906101000a900473ffffffffffffffffffffffffffffffffffffffff1681565b6040518060400160405280600073ffffffffffffffffffffffffffffffffffffffff1681526020016000151581525090565b6000819050919050565b6107fa816107e7565b82525050565b600060208201905061081560008301846107f1565b92915050565b600080fd5b600073ffffffffffffffffffffffffffffffffffffffff82169050919050565b600061084b82610820565b9050919050565b61085b81610840565b811461086657600080fd5b50565b60008135905061087881610852565b92915050565b6000602082840312156108945761089361081b565b5b60006108a284828501610869565b91505092915050565b60006108b682610820565b9050919050565b6108c6816108ab565b82525050565b60008115159050919050565b6108e1816108cc565b82525050565b60006040820190506108fc60008301856108bd565b61090960208301846108d8565b9392505050565b61091981610840565b82525050565b60006020820190506109346000830184610910565b92915050565b610943816107e7565b811461094e57600080fd5b50565b6000813590506109608161093a565b92915050565b60006020828403121561097c5761097b61081b565b5b600061098a84828501610951565b91505092915050565b600082825260208201905092915050565b7f4f6e6c792074686520636f6e7472616374206f776e65722063616e2063616c6c60008201527f20746869732066756e6374696f6e2e0000000000000000000000000000000000602082015250565b6000610a00602f83610993565b9150610a0b826109a4565b604082019050919050565b60006020820190508181036000830152610a2f816109f3565b9050919050565b7f4e487b7100000000000000000000000000000000000000000000000000000000600052601260045260246000fd5b7f4e487b7100000000000000000000000000000000000000000000000000000000600052601160045260246000fd5b6000610a9f826107e7565b9150610aaa836107e7565b925082610aba57610ab9610a36565b5b828204905092915050565b7f4e6f7420656e6f756768207469636b6574732068617665206265656e20736f6c60008201527f642e000000000000000000000000000000000000000000000000000000000000602082015250565b6000610b21602283610993565b9150610b2c82610ac5565b604082019050919050565b60006020820190508181036000830152610b5081610b14565b9050919050565b6000610b62826107e7565b9150610b6d836107e7565b9250828203905081811115610b8557610b84610a65565b5b92915050565b6000819050919050565b610ba6610ba1826107e7565b610b8b565b82525050565b60008160601b9050919050565b6000610bc482610bac565b9050919050565b6000610bd682610bb9565b9050919050565b610bee610be982610840565b610bcb565b82525050565b6000610c008286610b95565b602082019150610c108285610bdd565b601482019150610c208284610b95565b602082019150819050949350505050565b6000610c3c826107e7565b9150610c47836107e7565b925082610c5757610c56610a36565b5b828206905092915050565b6000610c6d826107e7565b91507fffffffffffffffffffffffffffffffffffffffffffffffffffffffffffffffff8203610c9f57610c9e610a65565b5b600182019050919050565b7f4e487b7100000000000000000000000000000000000000000000000000000000600052603260045260246000fd5b7f5469636b6574732061726520736f6c64206f75742e0000000000000000000000600082015250565b6000610d0f601583610993565b9150610d1a82610cd9565b602082019050919050565b60006020820190508181036000830152610d3e81610d02565b9050919050565b7f4f6e6c79206f6e65207469636b65742070657220616464726573732063616e2060008201527f6265207075726368617365642e00000000000000000000000000000000000000602082015250565b6000610da1602d83610993565b9150610dac82610d45565b604082019050919050565b60006020820190508181036000830152610dd081610d94565b9050919050565b7f456974686572206e6f7420656e6f756768206f7220746f6f206d75636820457460008201527f686572207761732073656e742e00000000000000000000000000000000000000602082015250565b6000610e33602d83610993565b9150610e3e82610dd7565b604082019050919050565b60006020820190508181036000830152610e6281610e26565b9050919050565b6000610e74826107e7565b915060008203610e8757610e86610a65565b5b60018203905091905056fea264697066735822122095fe0c5410d79907cc7c1e77037fbbd538bb0bf2f7afab54585b9afa4370fcc164736f6c63430008120033",
					"opcodes": "PUSH1 0x80 PUSH1 0x40 MSTORE PUSH8 0xDE0B6B3A7640000 PUSH1 0x6 SSTORE CALLVALUE DUP1 ISZERO PUSH2 0x1C JUMPI PUSH1 0x0 DUP1 REVERT JUMPDEST POP PUSH1 0x40 MLOAD PUSH2 0xFD3 CODESIZE SUB DUP1 PUSH2 0xFD3 DUP4 CODECOPY DUP2 DUP2 ADD PUSH1 0x40 MSTORE DUP2 ADD SWAP1 PUSH2 0x3E SWAP2 SWAP1 PUSH2 0xCF JUMP JUMPDEST CALLER PUSH1 0x0 DUP1 PUSH2 0x100 EXP DUP2 SLOAD DUP2 PUSH20 0xFFFFFFFFFFFFFFFFFFFFFFFFFFFFFFFFFFFFFFFF MUL NOT AND SWAP1 DUP4 PUSH20 0xFFFFFFFFFFFFFFFFFFFFFFFFFFFFFFFFFFFFFFFF AND MUL OR SWAP1 SSTORE POP DUP1 PUSH1 0x4 DUP2 SWAP1 SSTORE POP PUSH1 0x4 SLOAD PUSH1 0x5 DUP2 SWAP1 SSTORE POP POP PUSH2 0xFC JUMP JUMPDEST PUSH1 0x0 DUP1 REVERT JUMPDEST PUSH1 0x0 DUP2 SWAP1 POP SWAP2 SWAP1 POP JUMP JUMPDEST PUSH2 0xAC DUP2 PUSH2 0x99 JUMP JUMPDEST DUP2 EQ PUSH2 0xB7 JUMPI PUSH1 0x0 DUP1 REVERT JUMPDEST POP JUMP JUMPDEST PUSH1 0x0 DUP2 MLOAD SWAP1 POP PUSH2 0xC9 DUP2 PUSH2 0xA3 JUMP JUMPDEST SWAP3 SWAP2 POP POP JUMP JUMPDEST PUSH1 0x0 PUSH1 0x20 DUP3 DUP5 SUB SLT ISZERO PUSH2 0xE5 JUMPI PUSH2 0xE4 PUSH2 0x94 JUMP JUMPDEST JUMPDEST PUSH1 0x0 PUSH2 0xF3 DUP5 DUP3 DUP6 ADD PUSH2 0xBA JUMP JUMPDEST SWAP2 POP POP SWAP3 SWAP2 POP POP JUMP JUMPDEST PUSH2 0xEC8 DUP1 PUSH2 0x10B PUSH1 0x0 CODECOPY PUSH1 0x0 RETURN INVALID PUSH1 0x80 PUSH1 0x40 MSTORE PUSH1 0x4 CALLDATASIZE LT PUSH2 0x7B JUMPI PUSH1 0x0 CALLDATALOAD PUSH1 0xE0 SHR DUP1 PUSH4 0x8DA5CB5B GT PUSH2 0x4E JUMPI DUP1 PUSH4 0x8DA5CB5B EQ PUSH2 0x13F JUMPI DUP1 PUSH4 0xB2185BB1 EQ PUSH2 0x16A JUMPI DUP1 PUSH4 0xEDCA914C EQ PUSH2 0x195 JUMPI DUP1 PUSH4 0xF71D96CB EQ PUSH2 0x19F JUMPI PUSH2 0x7B JUMP JUMPDEST DUP1 PUSH4 0x1209B1F6 EQ PUSH2 0x80 JUMPI DUP1 PUSH4 0x2240DBDB EQ PUSH2 0xAB JUMPI DUP1 PUSH4 0x333C1992 EQ PUSH2 0xD6 JUMPI DUP1 PUSH4 0x6DCBF2A3 EQ PUSH2 0x101 JUMPI JUMPDEST PUSH1 0x0 DUP1 REVERT JUMPDEST CALLVALUE DUP1 ISZERO PUSH2 0x8C JUMPI PUSH1 0x0 DUP1 REVERT JUMPDEST POP PUSH2 0x95 PUSH2 0x1DC JUMP JUMPDEST PUSH1 0x40 MLOAD PUSH2 0xA2 SWAP2 SWAP1 PUSH2 0x800 JUMP JUMPDEST PUSH1 0x40 MLOAD DUP1 SWAP2 SUB SWAP1 RETURN JUMPDEST CALLVALUE DUP1 ISZERO PUSH2 0xB7 JUMPI PUSH1 0x0 DUP1 REVERT JUMPDEST POP PUSH2 0xC0 PUSH2 0x1E2 JUMP JUMPDEST PUSH1 0x40 MLOAD PUSH2 0xCD SWAP2 SWAP1 PUSH2 0x800 JUMP JUMPDEST PUSH1 0x40 MLOAD DUP1 SWAP2 SUB SWAP1 RETURN JUMPDEST CALLVALUE DUP1 ISZERO PUSH2 0xE2 JUMPI PUSH1 0x0 DUP1 REVERT JUMPDEST POP PUSH2 0xEB PUSH2 0x1E8 JUMP JUMPDEST PUSH1 0x40 MLOAD PUSH2 0xF8 SWAP2 SWAP1 PUSH2 0x800 JUMP JUMPDEST PUSH1 0x40 MLOAD DUP1 SWAP2 SUB SWAP1 RETURN JUMPDEST CALLVALUE DUP1 ISZERO PUSH2 0x10D JUMPI PUSH1 0x0 DUP1 REVERT JUMPDEST POP PUSH2 0x128 PUSH1 0x4 DUP1 CALLDATASIZE SUB DUP2 ADD SWAP1 PUSH2 0x123 SWAP2 SWAP1 PUSH2 0x87E JUMP JUMPDEST PUSH2 0x1EE JUMP JUMPDEST PUSH1 0x40 MLOAD PUSH2 0x136 SWAP3 SWAP2 SWAP1 PUSH2 0x8E7 JUMP JUMPDEST PUSH1 0x40 MLOAD DUP1 SWAP2 SUB SWAP1 RETURN JUMPDEST CALLVALUE DUP1 ISZERO PUSH2 0x14B JUMPI PUSH1 0x0 DUP1 REVERT JUMPDEST POP PUSH2 0x154 PUSH2 0x23F JUMP JUMPDEST PUSH1 0x40 MLOAD PUSH2 0x161 SWAP2 SWAP1 PUSH2 0x91F JUMP JUMPDEST PUSH1 0x40 MLOAD DUP1 SWAP2 SUB SWAP1 RETURN JUMPDEST CALLVALUE DUP1 ISZERO PUSH2 0x176 JUMPI PUSH1 0x0 DUP1 REVERT JUMPDEST POP PUSH2 0x17F PUSH2 0x263 JUMP JUMPDEST PUSH1 0x40 MLOAD PUSH2 0x18C SWAP2 SWAP1 PUSH2 0x91F JUMP JUMPDEST PUSH1 0x40 MLOAD DUP1 SWAP2 SUB SWAP1 RETURN JUMPDEST PUSH2 0x19D PUSH2 0x48C JUMP JUMPDEST STOP JUMPDEST CALLVALUE DUP1 ISZERO PUSH2 0x1AB JUMPI PUSH1 0x0 DUP1 REVERT JUMPDEST POP PUSH2 0x1C6 PUSH1 0x4 DUP1 CALLDATASIZE SUB DUP2 ADD SWAP1 PUSH2 0x1C1 SWAP2 SWAP1 PUSH2 0x966 JUMP JUMPDEST PUSH2 0x776 JUMP JUMPDEST PUSH1 0x40 MLOAD PUSH2 0x1D3 SWAP2 SWAP1 PUSH2 0x91F JUMP JUMPDEST PUSH1 0x40 MLOAD DUP1 SWAP2 SUB SWAP1 RETURN JUMPDEST PUSH1 0x6 SLOAD DUP2 JUMP JUMPDEST PUSH1 0x4 SLOAD DUP2 JUMP JUMPDEST PUSH1 0x5 SLOAD DUP2 JUMP JUMPDEST PUSH1 0x2 PUSH1 0x20 MSTORE DUP1 PUSH1 0x0 MSTORE PUSH1 0x40 PUSH1 0x0 KECCAK256 PUSH1 0x0 SWAP2 POP SWAP1 POP DUP1 PUSH1 0x0 ADD PUSH1 0x0 SWAP1 SLOAD SWAP1 PUSH2 0x100 EXP SWAP1 DIV PUSH20 0xFFFFFFFFFFFFFFFFFFFFFFFFFFFFFFFFFFFFFFFF AND SWAP1 DUP1 PUSH1 0x0 ADD PUSH1 0x14 SWAP1 SLOAD SWAP1 PUSH2 0x100 EXP SWAP1 DIV PUSH1 0xFF AND SWAP1 POP DUP3 JUMP JUMPDEST PUSH1 0x0 DUP1 SLOAD SWAP1 PUSH2 0x100 EXP SWAP1 DIV PUSH20 0xFFFFFFFFFFFFFFFFFFFFFFFFFFFFFFFFFFFFFFFF AND DUP2 JUMP JUMPDEST PUSH1 0x0 DUP1 PUSH1 0x0 SWAP1 SLOAD SWAP1 PUSH2 0x100 EXP SWAP1 DIV PUSH20 0xFFFFFFFFFFFFFFFFFFFFFFFFFFFFFFFFFFFFFFFF AND PUSH20 0xFFFFFFFFFFFFFFFFFFFFFFFFFFFFFFFFFFFFFFFF AND CALLER PUSH20 0xFFFFFFFFFFFFFFFFFFFFFFFFFFFFFFFFFFFFFFFF AND EQ PUSH2 0x2F4 JUMPI PUSH1 0x40 MLOAD PUSH32 0x8C379A000000000000000000000000000000000000000000000000000000000 DUP2 MSTORE PUSH1 0x4 ADD PUSH2 0x2EB SWAP1 PUSH2 0xA16 JUMP JUMPDEST PUSH1 0x40 MLOAD DUP1 SWAP2 SUB SWAP1 REVERT JUMPDEST PUSH1 0x2 PUSH1 0x4 SLOAD PUSH2 0x303 SWAP2 SWAP1 PUSH2 0xA94 JUMP JUMPDEST PUSH1 0x5 SLOAD LT PUSH2 0x346 JUMPI PUSH1 0x40 MLOAD PUSH32 0x8C379A000000000000000000000000000000000000000000000000000000000 DUP2 MSTORE PUSH1 0x4 ADD PUSH2 0x33D SWAP1 PUSH2 0xB37 JUMP JUMPDEST PUSH1 0x40 MLOAD DUP1 SWAP2 SUB SWAP1 REVERT JUMPDEST PUSH1 0x0 PUSH1 0x5 SLOAD PUSH1 0x4 SLOAD PUSH2 0x358 SWAP2 SWAP1 PUSH2 0xB57 JUMP JUMPDEST TIMESTAMP CALLER PUSH1 0x3 SLOAD PUSH1 0x40 MLOAD PUSH1 0x20 ADD PUSH2 0x36F SWAP4 SWAP3 SWAP2 SWAP1 PUSH2 0xBF4 JUMP JUMPDEST PUSH1 0x40 MLOAD PUSH1 0x20 DUP2 DUP4 SUB SUB DUP2 MSTORE SWAP1 PUSH1 0x40 MSTORE DUP1 MLOAD SWAP1 PUSH1 0x20 ADD KECCAK256 PUSH1 0x0 SHR PUSH2 0x392 SWAP2 SWAP1 PUSH2 0xC31 JUMP JUMPDEST SWAP1 POP PUSH1 0x3 PUSH1 0x0 DUP2 SLOAD DUP1 SWAP3 SWAP2 SWAP1 PUSH2 0x3A7 SWAP1 PUSH2 0xC62 JUMP JUMPDEST SWAP2 SWAP1 POP SSTORE POP PUSH1 0x0 PUSH1 0x1 DUP3 DUP2 SLOAD DUP2 LT PUSH2 0x3C2 JUMPI PUSH2 0x3C1 PUSH2 0xCAA JUMP JUMPDEST JUMPDEST SWAP1 PUSH1 0x0 MSTORE PUSH1 0x20 PUSH1 0x0 KECCAK256 ADD PUSH1 0x0 SWAP1 SLOAD SWAP1 PUSH2 0x100 EXP SWAP1 DIV PUSH20 0xFFFFFFFFFFFFFFFFFFFFFFFFFFFFFFFFFFFFFFFF AND SWAP1 POP DUP1 PUSH20 0xFFFFFFFFFFFFFFFFFFFFFFFFFFFFFFFFFFFFFFFF AND PUSH2 0x8FC SELFBALANCE SWAP1 DUP2 ISZERO MUL SWAP1 PUSH1 0x40 MLOAD PUSH1 0x0 PUSH1 0x40 MLOAD DUP1 DUP4 SUB DUP2 DUP6 DUP9 DUP9 CALL SWAP4 POP POP POP POP ISZERO DUP1 ISZERO PUSH2 0x435 JUMPI RETURNDATASIZE PUSH1 0x0 DUP1 RETURNDATACOPY RETURNDATASIZE PUSH1 0x0 REVERT JUMPDEST POP DUP1 PUSH20 0xFFFFFFFFFFFFFFFFFFFFFFFFFFFFFFFFFFFFFFFF AND PUSH32 0x2E798DD4337E515C79B64C40E1A93BAA1AEFBD9180AC7905E02508EDD7971E50 NUMBER PUSH1 0x40 MLOAD PUSH2 0x47C SWAP2 SWAP1 PUSH2 0x800 JUMP JUMPDEST PUSH1 0x40 MLOAD DUP1 SWAP2 SUB SWAP1 LOG2 DUP1 SWAP3 POP POP POP SWAP1 JUMP JUMPDEST PUSH1 0x0 PUSH1 0x5 SLOAD GT PUSH2 0x4D1 JUMPI PUSH1 0x40 MLOAD PUSH32 0x8C379A000000000000000000000000000000000000000000000000000000000 DUP2 MSTORE PUSH1 0x4 ADD PUSH2 0x4C8 SWAP1 PUSH2 0xD25 JUMP JUMPDEST PUSH1 0x40 MLOAD DUP1 SWAP2 SUB SWAP1 REVERT JUMPDEST PUSH1 0x0 ISZERO ISZERO PUSH1 0x2 PUSH1 0x0 CALLER PUSH20 0xFFFFFFFFFFFFFFFFFFFFFFFFFFFFFFFFFFFFFFFF AND PUSH20 0xFFFFFFFFFFFFFFFFFFFFFFFFFFFFFFFFFFFFFFFF AND DUP2 MSTORE PUSH1 0x20 ADD SWAP1 DUP2 MSTORE PUSH1 0x20 ADD PUSH1 0x0 KECCAK256 PUSH1 0x0 ADD PUSH1 0x14 SWAP1 SLOAD SWAP1 PUSH2 0x100 EXP SWAP1 DIV PUSH1 0xFF AND ISZERO ISZERO EQ PUSH2 0x567 JUMPI PUSH1 0x40 MLOAD PUSH32 0x8C379A000000000000000000000000000000000000000000000000000000000 DUP2 MSTORE PUSH1 0x4 ADD PUSH2 0x55E SWAP1 PUSH2 0xDB7 JUMP JUMPDEST PUSH1 0x40 MLOAD DUP1 SWAP2 SUB SWAP1 REVERT JUMPDEST PUSH1 0x6 SLOAD CALLVALUE EQ PUSH2 0x5AB JUMPI PUSH1 0x40 MLOAD PUSH32 0x8C379A000000000000000000000000000000000000000000000000000000000 DUP2 MSTORE PUSH1 0x4 ADD PUSH2 0x5A2 SWAP1 PUSH2 0xE49 JUMP JUMPDEST PUSH1 0x40 MLOAD DUP1 SWAP2 SUB SWAP1 REVERT JUMPDEST PUSH2 0x5B3 PUSH2 0x7B5 JUMP JUMPDEST CALLER DUP2 PUSH1 0x0 ADD SWAP1 PUSH20 0xFFFFFFFFFFFFFFFFFFFFFFFFFFFFFFFFFFFFFFFF AND SWAP1 DUP2 PUSH20 0xFFFFFFFFFFFFFFFFFFFFFFFFFFFFFFFFFFFFFFFF AND DUP2 MSTORE POP POP PUSH1 0x1 DUP2 PUSH1 0x20 ADD SWAP1 ISZERO ISZERO SWAP1 DUP2 ISZERO ISZERO DUP2 MSTORE POP POP DUP1 PUSH1 0x2 PUSH1 0x0 CALLER PUSH20 0xFFFFFFFFFFFFFFFFFFFFFFFFFFFFFFFFFFFFFFFF AND PUSH20 0xFFFFFFFFFFFFFFFFFFFFFFFFFFFFFFFFFFFFFFFF AND DUP2 MSTORE PUSH1 0x20 ADD SWAP1 DUP2 MSTORE PUSH1 0x20 ADD PUSH1 0x0 KECCAK256 PUSH1 0x0 DUP3 ADD MLOAD DUP2 PUSH1 0x0 ADD PUSH1 0x0 PUSH2 0x100 EXP DUP2 SLOAD DUP2 PUSH20 0xFFFFFFFFFFFFFFFFFFFFFFFFFFFFFFFFFFFFFFFF MUL NOT AND SWAP1 DUP4 PUSH20 0xFFFFFFFFFFFFFFFFFFFFFFFFFFFFFFFFFFFFFFFF AND MUL OR SWAP1 SSTORE POP PUSH1 0x20 DUP3 ADD MLOAD DUP2 PUSH1 0x0 ADD PUSH1 0x14 PUSH2 0x100 EXP DUP2 SLOAD DUP2 PUSH1 0xFF MUL NOT AND SWAP1 DUP4 ISZERO ISZERO MUL OR SWAP1 SSTORE POP SWAP1 POP POP PUSH1 0x1 DUP2 PUSH1 0x0 ADD MLOAD SWAP1 DUP1 PUSH1 0x1 DUP2 SLOAD ADD DUP1 DUP3 SSTORE DUP1 SWAP2 POP POP PUSH1 0x1 SWAP1 SUB SWAP1 PUSH1 0x0 MSTORE PUSH1 0x20 PUSH1 0x0 KECCAK256 ADD PUSH1 0x0 SWAP1 SWAP2 SWAP1 SWAP2 SWAP1 SWAP2 PUSH2 0x100 EXP DUP2 SLOAD DUP2 PUSH20 0xFFFFFFFFFFFFFFFFFFFFFFFFFFFFFFFFFFFFFFFF MUL NOT AND SWAP1 DUP4 PUSH20 0xFFFFFFFFFFFFFFFFFFFFFFFFFFFFFFFFFFFFFFFF AND MUL OR SWAP1 SSTORE POP PUSH1 0x5 PUSH1 0x0 DUP2 SLOAD DUP1 SWAP3 SWAP2 SWAP1 PUSH2 0x720 SWAP1 PUSH2 0xE69 JUMP JUMPDEST SWAP2 SWAP1 POP SSTORE POP CALLER PUSH20 0xFFFFFFFFFFFFFFFFFFFFFFFFFFFFFFFFFFFFFFFF AND PUSH32 0x668F5B446EB814FE35B3206F43F14BD8567BA04DDAF7A3EE56516929AB22CCB NUMBER PUSH1 0x40 MLOAD PUSH2 0x76B SWAP2 SWAP1 PUSH2 0x800 JUMP JUMPDEST PUSH1 0x40 MLOAD DUP1 SWAP2 SUB SWAP1 LOG2 POP JUMP JUMPDEST PUSH1 0x1 DUP2 DUP2 SLOAD DUP2 LT PUSH2 0x786 JUMPI PUSH1 0x0 DUP1 REVERT JUMPDEST SWAP1 PUSH1 0x0 MSTORE PUSH1 0x20 PUSH1 0x0 KECCAK256 ADD PUSH1 0x0 SWAP2 POP SLOAD SWAP1 PUSH2 0x100 EXP SWAP1 DIV PUSH20 0xFFFFFFFFFFFFFFFFFFFFFFFFFFFFFFFFFFFFFFFF AND DUP2 JUMP JUMPDEST PUSH1 0x40 MLOAD DUP1 PUSH1 0x40 ADD PUSH1 0x40 MSTORE DUP1 PUSH1 0x0 PUSH20 0xFFFFFFFFFFFFFFFFFFFFFFFFFFFFFFFFFFFFFFFF AND DUP2 MSTORE PUSH1 0x20 ADD PUSH1 0x0 ISZERO ISZERO DUP2 MSTORE POP SWAP1 JUMP JUMPDEST PUSH1 0x0 DUP2 SWAP1 POP SWAP2 SWAP1 POP JUMP JUMPDEST PUSH2 0x7FA DUP2 PUSH2 0x7E7 JUMP JUMPDEST DUP3 MSTORE POP POP JUMP JUMPDEST PUSH1 0x0 PUSH1 0x20 DUP3 ADD SWAP1 POP PUSH2 0x815 PUSH1 0x0 DUP4 ADD DUP5 PUSH2 0x7F1 JUMP JUMPDEST SWAP3 SWAP2 POP POP JUMP JUMPDEST PUSH1 0x0 DUP1 REVERT JUMPDEST PUSH1 0x0 PUSH20 0xFFFFFFFFFFFFFFFFFFFFFFFFFFFFFFFFFFFFFFFF DUP3 AND SWAP1 POP SWAP2 SWAP1 POP JUMP JUMPDEST PUSH1 0x0 PUSH2 0x84B DUP3 PUSH2 0x820 JUMP JUMPDEST SWAP1 POP SWAP2 SWAP1 POP JUMP JUMPDEST PUSH2 0x85B DUP2 PUSH2 0x840 JUMP JUMPDEST DUP2 EQ PUSH2 0x866 JUMPI PUSH1 0x0 DUP1 REVERT JUMPDEST POP JUMP JUMPDEST PUSH1 0x0 DUP2 CALLDATALOAD SWAP1 POP PUSH2 0x878 DUP2 PUSH2 0x852 JUMP JUMPDEST SWAP3 SWAP2 POP POP JUMP JUMPDEST PUSH1 0x0 PUSH1 0x20 DUP3 DUP5 SUB SLT ISZERO PUSH2 0x894 JUMPI PUSH2 0x893 PUSH2 0x81B JUMP JUMPDEST JUMPDEST PUSH1 0x0 PUSH2 0x8A2 DUP5 DUP3 DUP6 ADD PUSH2 0x869 JUMP JUMPDEST SWAP2 POP POP SWAP3 SWAP2 POP POP JUMP JUMPDEST PUSH1 0x0 PUSH2 0x8B6 DUP3 PUSH2 0x820 JUMP JUMPDEST SWAP1 POP SWAP2 SWAP1 POP JUMP JUMPDEST PUSH2 0x8C6 DUP2 PUSH2 0x8AB JUMP JUMPDEST DUP3 MSTORE POP POP JUMP JUMPDEST PUSH1 0x0 DUP2 ISZERO ISZERO SWAP1 POP SWAP2 SWAP1 POP JUMP JUMPDEST PUSH2 0x8E1 DUP2 PUSH2 0x8CC JUMP JUMPDEST DUP3 MSTORE POP POP JUMP JUMPDEST PUSH1 0x0 PUSH1 0x40 DUP3 ADD SWAP1 POP PUSH2 0x8FC PUSH1 0x0 DUP4 ADD DUP6 PUSH2 0x8BD JUMP JUMPDEST PUSH2 0x909 PUSH1 0x20 DUP4 ADD DUP5 PUSH2 0x8D8 JUMP JUMPDEST SWAP4 SWAP3 POP POP POP JUMP JUMPDEST PUSH2 0x919 DUP2 PUSH2 0x840 JUMP JUMPDEST DUP3 MSTORE POP POP JUMP JUMPDEST PUSH1 0x0 PUSH1 0x20 DUP3 ADD SWAP1 POP PUSH2 0x934 PUSH1 0x0 DUP4 ADD DUP5 PUSH2 0x910 JUMP JUMPDEST SWAP3 SWAP2 POP POP JUMP JUMPDEST PUSH2 0x943 DUP2 PUSH2 0x7E7 JUMP JUMPDEST DUP2 EQ PUSH2 0x94E JUMPI PUSH1 0x0 DUP1 REVERT JUMPDEST POP JUMP JUMPDEST PUSH1 0x0 DUP2 CALLDATALOAD SWAP1 POP PUSH2 0x960 DUP2 PUSH2 0x93A JUMP JUMPDEST SWAP3 SWAP2 POP POP JUMP JUMPDEST PUSH1 0x0 PUSH1 0x20 DUP3 DUP5 SUB SLT ISZERO PUSH2 0x97C JUMPI PUSH2 0x97B PUSH2 0x81B JUMP JUMPDEST JUMPDEST PUSH1 0x0 PUSH2 0x98A DUP5 DUP3 DUP6 ADD PUSH2 0x951 JUMP JUMPDEST SWAP2 POP POP SWAP3 SWAP2 POP POP JUMP JUMPDEST PUSH1 0x0 DUP3 DUP3 MSTORE PUSH1 0x20 DUP3 ADD SWAP1 POP SWAP3 SWAP2 POP POP JUMP JUMPDEST PUSH32 0x4F6E6C792074686520636F6E7472616374206F776E65722063616E2063616C6C PUSH1 0x0 DUP3 ADD MSTORE PUSH32 0x20746869732066756E6374696F6E2E0000000000000000000000000000000000 PUSH1 0x20 DUP3 ADD MSTORE POP JUMP JUMPDEST PUSH1 0x0 PUSH2 0xA00 PUSH1 0x2F DUP4 PUSH2 0x993 JUMP JUMPDEST SWAP2 POP PUSH2 0xA0B DUP3 PUSH2 0x9A4 JUMP JUMPDEST PUSH1 0x40 DUP3 ADD SWAP1 POP SWAP2 SWAP1 POP JUMP JUMPDEST PUSH1 0x0 PUSH1 0x20 DUP3 ADD SWAP1 POP DUP2 DUP2 SUB PUSH1 0x0 DUP4 ADD MSTORE PUSH2 0xA2F DUP2 PUSH2 0x9F3 JUMP JUMPDEST SWAP1 POP SWAP2 SWAP1 POP JUMP JUMPDEST PUSH32 0x4E487B7100000000000000000000000000000000000000000000000000000000 PUSH1 0x0 MSTORE PUSH1 0x12 PUSH1 0x4 MSTORE PUSH1 0x24 PUSH1 0x0 REVERT JUMPDEST PUSH32 0x4E487B7100000000000000000000000000000000000000000000000000000000 PUSH1 0x0 MSTORE PUSH1 0x11 PUSH1 0x4 MSTORE PUSH1 0x24 PUSH1 0x0 REVERT JUMPDEST PUSH1 0x0 PUSH2 0xA9F DUP3 PUSH2 0x7E7 JUMP JUMPDEST SWAP2 POP PUSH2 0xAAA DUP4 PUSH2 0x7E7 JUMP JUMPDEST SWAP3 POP DUP3 PUSH2 0xABA JUMPI PUSH2 0xAB9 PUSH2 0xA36 JUMP JUMPDEST JUMPDEST DUP3 DUP3 DIV SWAP1 POP SWAP3 SWAP2 POP POP JUMP JUMPDEST PUSH32 0x4E6F7420656E6F756768207469636B6574732068617665206265656E20736F6C PUSH1 0x0 DUP3 ADD MSTORE PUSH32 0x642E000000000000000000000000000000000000000000000000000000000000 PUSH1 0x20 DUP3 ADD MSTORE POP JUMP JUMPDEST PUSH1 0x0 PUSH2 0xB21 PUSH1 0x22 DUP4 PUSH2 0x993 JUMP JUMPDEST SWAP2 POP PUSH2 0xB2C DUP3 PUSH2 0xAC5 JUMP JUMPDEST PUSH1 0x40 DUP3 ADD SWAP1 POP SWAP2 SWAP1 POP JUMP JUMPDEST PUSH1 0x0 PUSH1 0x20 DUP3 ADD SWAP1 POP DUP2 DUP2 SUB PUSH1 0x0 DUP4 ADD MSTORE PUSH2 0xB50 DUP2 PUSH2 0xB14 JUMP JUMPDEST SWAP1 POP SWAP2 SWAP1 POP JUMP JUMPDEST PUSH1 0x0 PUSH2 0xB62 DUP3 PUSH2 0x7E7 JUMP JUMPDEST SWAP2 POP PUSH2 0xB6D DUP4 PUSH2 0x7E7 JUMP JUMPDEST SWAP3 POP DUP3 DUP3 SUB SWAP1 POP DUP2 DUP2 GT ISZERO PUSH2 0xB85 JUMPI PUSH2 0xB84 PUSH2 0xA65 JUMP JUMPDEST JUMPDEST SWAP3 SWAP2 POP POP JUMP JUMPDEST PUSH1 0x0 DUP2 SWAP1 POP SWAP2 SWAP1 POP JUMP JUMPDEST PUSH2 0xBA6 PUSH2 0xBA1 DUP3 PUSH2 0x7E7 JUMP JUMPDEST PUSH2 0xB8B JUMP JUMPDEST DUP3 MSTORE POP POP JUMP JUMPDEST PUSH1 0x0 DUP2 PUSH1 0x60 SHL SWAP1 POP SWAP2 SWAP1 POP JUMP JUMPDEST PUSH1 0x0 PUSH2 0xBC4 DUP3 PUSH2 0xBAC JUMP JUMPDEST SWAP1 POP SWAP2 SWAP1 POP JUMP JUMPDEST PUSH1 0x0 PUSH2 0xBD6 DUP3 PUSH2 0xBB9 JUMP JUMPDEST SWAP1 POP SWAP2 SWAP1 POP JUMP JUMPDEST PUSH2 0xBEE PUSH2 0xBE9 DUP3 PUSH2 0x840 JUMP JUMPDEST PUSH2 0xBCB JUMP JUMPDEST DUP3 MSTORE POP POP JUMP JUMPDEST PUSH1 0x0 PUSH2 0xC00 DUP3 DUP7 PUSH2 0xB95 JUMP JUMPDEST PUSH1 0x20 DUP3 ADD SWAP2 POP PUSH2 0xC10 DUP3 DUP6 PUSH2 0xBDD JUMP JUMPDEST PUSH1 0x14 DUP3 ADD SWAP2 POP PUSH2 0xC20 DUP3 DUP5 PUSH2 0xB95 JUMP JUMPDEST PUSH1 0x20 DUP3 ADD SWAP2 POP DUP2 SWAP1 POP SWAP5 SWAP4 POP POP POP POP JUMP JUMPDEST PUSH1 0x0 PUSH2 0xC3C DUP3 PUSH2 0x7E7 JUMP JUMPDEST SWAP2 POP PUSH2 0xC47 DUP4 PUSH2 0x7E7 JUMP JUMPDEST SWAP3 POP DUP3 PUSH2 0xC57 JUMPI PUSH2 0xC56 PUSH2 0xA36 JUMP JUMPDEST JUMPDEST DUP3 DUP3 MOD SWAP1 POP SWAP3 SWAP2 POP POP JUMP JUMPDEST PUSH1 0x0 PUSH2 0xC6D DUP3 PUSH2 0x7E7 JUMP JUMPDEST SWAP2 POP PUSH32 0xFFFFFFFFFFFFFFFFFFFFFFFFFFFFFFFFFFFFFFFFFFFFFFFFFFFFFFFFFFFFFFFF DUP3 SUB PUSH2 0xC9F JUMPI PUSH2 0xC9E PUSH2 0xA65 JUMP JUMPDEST JUMPDEST PUSH1 0x1 DUP3 ADD SWAP1 POP SWAP2 SWAP1 POP JUMP JUMPDEST PUSH32 0x4E487B7100000000000000000000000000000000000000000000000000000000 PUSH1 0x0 MSTORE PUSH1 0x32 PUSH1 0x4 MSTORE PUSH1 0x24 PUSH1 0x0 REVERT JUMPDEST PUSH32 0x5469636B6574732061726520736F6C64206F75742E0000000000000000000000 PUSH1 0x0 DUP3 ADD MSTORE POP JUMP JUMPDEST PUSH1 0x0 PUSH2 0xD0F PUSH1 0x15 DUP4 PUSH2 0x993 JUMP JUMPDEST SWAP2 POP PUSH2 0xD1A DUP3 PUSH2 0xCD9 JUMP JUMPDEST PUSH1 0x20 DUP3 ADD SWAP1 POP SWAP2 SWAP1 POP JUMP JUMPDEST PUSH1 0x0 PUSH1 0x20 DUP3 ADD SWAP1 POP DUP2 DUP2 SUB PUSH1 0x0 DUP4 ADD MSTORE PUSH2 0xD3E DUP2 PUSH2 0xD02 JUMP JUMPDEST SWAP1 POP SWAP2 SWAP1 POP JUMP JUMPDEST PUSH32 0x4F6E6C79206F6E65207469636B65742070657220616464726573732063616E20 PUSH1 0x0 DUP3 ADD MSTORE PUSH32 0x6265207075726368617365642E00000000000000000000000000000000000000 PUSH1 0x20 DUP3 ADD MSTORE POP JUMP JUMPDEST PUSH1 0x0 PUSH2 0xDA1 PUSH1 0x2D DUP4 PUSH2 0x993 JUMP JUMPDEST SWAP2 POP PUSH2 0xDAC DUP3 PUSH2 0xD45 JUMP JUMPDEST PUSH1 0x40 DUP3 ADD SWAP1 POP SWAP2 SWAP1 POP JUMP JUMPDEST PUSH1 0x0 PUSH1 0x20 DUP3 ADD SWAP1 POP DUP2 DUP2 SUB PUSH1 0x0 DUP4 ADD MSTORE PUSH2 0xDD0 DUP2 PUSH2 0xD94 JUMP JUMPDEST SWAP1 POP SWAP2 SWAP1 POP JUMP JUMPDEST PUSH32 0x456974686572206E6F7420656E6F756768206F7220746F6F206D756368204574 PUSH1 0x0 DUP3 ADD MSTORE PUSH32 0x686572207761732073656E742E00000000000000000000000000000000000000 PUSH1 0x20 DUP3 ADD MSTORE POP JUMP JUMPDEST PUSH1 0x0 PUSH2 0xE33 PUSH1 0x2D DUP4 PUSH2 0x993 JUMP JUMPDEST SWAP2 POP PUSH2 0xE3E DUP3 PUSH2 0xDD7 JUMP JUMPDEST PUSH1 0x40 DUP3 ADD SWAP1 POP SWAP2 SWAP1 POP JUMP JUMPDEST PUSH1 0x0 PUSH1 0x20 DUP3 ADD SWAP1 POP DUP2 DUP2 SUB PUSH1 0x0 DUP4 ADD MSTORE PUSH2 0xE62 DUP2 PUSH2 0xE26 JUMP JUMPDEST SWAP1 POP SWAP2 SWAP1 POP JUMP JUMPDEST PUSH1 0x0 PUSH2 0xE74 DUP3 PUSH2 0x7E7 JUMP JUMPDEST SWAP2 POP PUSH1 0x0 DUP3 SUB PUSH2 0xE87 JUMPI PUSH2 0xE86 PUSH2 0xA65 JUMP JUMPDEST JUMPDEST PUSH1 0x1 DUP3 SUB SWAP1 POP SWAP2 SWAP1 POP JUMP INVALID LOG2 PUSH5 0x6970667358 0x22 SLT KECCAK256 SWAP6 INVALID 0xC SLOAD LT 0xD7 SWAP10 SMOD 0xCC PUSH29 0x1E77037FBBD538BB0BF2F7AFAB54585B9AFA4370FCC164736F6C634300 ADDMOD SLT STOP CALLER "
				},
				"gasEstimates": {
					"creation": {
						"codeDepositCost": "756800",
						"executionCost": "infinite",
						"totalCost": "infinite"
					},
					"external": {
						"buyTicket()": "infinite",
						"drawWinner()": "infinite",
						"owner()": "2511",
						"players(uint256)": "5022",
						"ticketPrice()": "2430",
						"tickets(address)": "infinite",
						"totalTicketSupply()": "2452",
						"unsoldTickets()": "2474"
					}
				},
				"methodIdentifiers": {
					"buyTicket()": "edca914c",
					"drawWinner()": "b2185bb1",
					"owner()": "8da5cb5b",
					"players(uint256)": "f71d96cb",
					"ticketPrice()": "1209b1f6",
					"tickets(address)": "6dcbf2a3",
					"totalTicketSupply()": "2240dbdb",
					"unsoldTickets()": "333c1992"
				}
			},
			"storageLayout": {
				"storage": [
					{
						"astId": 8,
						"contract": "Lottery.sol:Lottery",
						"label": "owner",
						"offset": 0,
						"slot": "0",
						"type": "t_address"
					},
					{
						"astId": 11,
						"contract": "Lottery.sol:Lottery",
						"label": "players",
						"offset": 0,
						"slot": "1",
						"type": "t_array(t_address)dyn_storage"
					},
					{
						"astId": 16,
						"contract": "Lottery.sol:Lottery",
						"label": "tickets",
						"offset": 0,
						"slot": "2",
						"type": "t_mapping(t_address,t_struct(Ticket)6_storage)"
					},
					{
						"astId": 18,
						"contract": "Lottery.sol:Lottery",
						"label": "nonce",
						"offset": 0,
						"slot": "3",
						"type": "t_uint256"
					},
					{
						"astId": 20,
						"contract": "Lottery.sol:Lottery",
						"label": "totalTicketSupply",
						"offset": 0,
						"slot": "4",
						"type": "t_uint256"
					},
					{
						"astId": 22,
						"contract": "Lottery.sol:Lottery",
						"label": "unsoldTickets",
						"offset": 0,
						"slot": "5",
						"type": "t_uint256"
					},
					{
						"astId": 25,
						"contract": "Lottery.sol:Lottery",
						"label": "ticketPrice",
						"offset": 0,
						"slot": "6",
						"type": "t_uint256"
					}
				],
				"types": {
					"t_address": {
						"encoding": "inplace",
						"label": "address",
						"numberOfBytes": "20"
					},
					"t_address_payable": {
						"encoding": "inplace",
						"label": "address payable",
						"numberOfBytes": "20"
					},
					"t_array(t_address)dyn_storage": {
						"base": "t_address",
						"encoding": "dynamic_array",
						"label": "address[]",
						"numberOfBytes": "32"
					},
					"t_bool": {
						"encoding": "inplace",
						"label": "bool",
						"numberOfBytes": "1"
					},
					"t_mapping(t_address,t_struct(Ticket)6_storage)": {
						"encoding": "mapping",
						"key": "t_address",
						"label": "mapping(address => struct Lottery.Ticket)",
						"numberOfBytes": "32",
						"value": "t_struct(Ticket)6_storage"
					},
					"t_struct(Ticket)6_storage": {
						"encoding": "inplace",
						"label": "struct Lottery.Ticket",
						"members": [
							{
								"astId": 3,
								"contract": "Lottery.sol:Lottery",
								"label": "holder",
								"offset": 0,
								"slot": "0",
								"type": "t_address_payable"
							},
							{
								"astId": 5,
								"contract": "Lottery.sol:Lottery",
								"label": "alreadyPurchased",
								"offset": 20,
								"slot": "0",
								"type": "t_bool"
							}
						],
						"numberOfBytes": "32"
					},
					"t_uint256": {
						"encoding": "inplace",
						"label": "uint256",
						"numberOfBytes": "32"
					}
				}
			},
			"userdoc": {
				"kind": "user",
				"methods": {},
				"version": 1
			}
		}
	}
}